{
  "address": "0xCf7Ed3AccA5a467e9e704C703E8D87F634fB0Fc9",
  "abi": [
    {
      "inputs": [
        {
          "internalType": "contract IVotes",
          "name": "_token",
          "type": "address"
        },
        {
          "internalType": "contract TimelockController",
          "name": "_timelock",
          "type": "address"
        },
        {
          "internalType": "uint256",
          "name": "_votingDelay",
          "type": "uint256"
        },
        {
          "internalType": "uint256",
          "name": "_votingPeriod",
          "type": "uint256"
        },
        {
          "internalType": "uint256",
          "name": "_quorumPercentage",
          "type": "uint256"
        }
      ],
      "stateMutability": "nonpayable",
      "type": "constructor"
    },
    {
      "anonymous": false,
      "inputs": [
        {
          "indexed": false,
          "internalType": "uint256",
          "name": "proposalId",
          "type": "uint256"
        }
      ],
      "name": "ProposalCanceled",
      "type": "event"
    },
    {
      "anonymous": false,
      "inputs": [
        {
          "indexed": false,
          "internalType": "uint256",
          "name": "proposalId",
          "type": "uint256"
        },
        {
          "indexed": false,
          "internalType": "address",
          "name": "proposer",
          "type": "address"
        },
        {
          "indexed": false,
          "internalType": "address[]",
          "name": "targets",
          "type": "address[]"
        },
        {
          "indexed": false,
          "internalType": "uint256[]",
          "name": "values",
          "type": "uint256[]"
        },
        {
          "indexed": false,
          "internalType": "string[]",
          "name": "signatures",
          "type": "string[]"
        },
        {
          "indexed": false,
          "internalType": "bytes[]",
          "name": "calldatas",
          "type": "bytes[]"
        },
        {
          "indexed": false,
          "internalType": "uint256",
          "name": "startBlock",
          "type": "uint256"
        },
        {
          "indexed": false,
          "internalType": "uint256",
          "name": "endBlock",
          "type": "uint256"
        },
        {
          "indexed": false,
          "internalType": "string",
          "name": "description",
          "type": "string"
        }
      ],
      "name": "ProposalCreated",
      "type": "event"
    },
    {
      "anonymous": false,
      "inputs": [
        {
          "indexed": false,
          "internalType": "uint256",
          "name": "proposalId",
          "type": "uint256"
        }
      ],
      "name": "ProposalExecuted",
      "type": "event"
    },
    {
      "anonymous": false,
      "inputs": [
        {
          "indexed": false,
          "internalType": "uint256",
          "name": "proposalId",
          "type": "uint256"
        },
        {
          "indexed": false,
          "internalType": "uint256",
          "name": "eta",
          "type": "uint256"
        }
      ],
      "name": "ProposalQueued",
      "type": "event"
    },
    {
      "anonymous": false,
      "inputs": [
        {
          "indexed": false,
          "internalType": "uint256",
          "name": "oldProposalThreshold",
          "type": "uint256"
        },
        {
          "indexed": false,
          "internalType": "uint256",
          "name": "newProposalThreshold",
          "type": "uint256"
        }
      ],
      "name": "ProposalThresholdSet",
      "type": "event"
    },
    {
      "anonymous": false,
      "inputs": [
        {
          "indexed": false,
          "internalType": "uint256",
          "name": "oldQuorumNumerator",
          "type": "uint256"
        },
        {
          "indexed": false,
          "internalType": "uint256",
          "name": "newQuorumNumerator",
          "type": "uint256"
        }
      ],
      "name": "QuorumNumeratorUpdated",
      "type": "event"
    },
    {
      "anonymous": false,
      "inputs": [
        {
          "indexed": false,
          "internalType": "address",
          "name": "oldTimelock",
          "type": "address"
        },
        {
          "indexed": false,
          "internalType": "address",
          "name": "newTimelock",
          "type": "address"
        }
      ],
      "name": "TimelockChange",
      "type": "event"
    },
    {
      "anonymous": false,
      "inputs": [
        {
          "indexed": true,
          "internalType": "address",
          "name": "voter",
          "type": "address"
        },
        {
          "indexed": false,
          "internalType": "uint256",
          "name": "proposalId",
          "type": "uint256"
        },
        {
          "indexed": false,
          "internalType": "uint8",
          "name": "support",
          "type": "uint8"
        },
        {
          "indexed": false,
          "internalType": "uint256",
          "name": "weight",
          "type": "uint256"
        },
        {
          "indexed": false,
          "internalType": "string",
          "name": "reason",
          "type": "string"
        }
      ],
      "name": "VoteCast",
      "type": "event"
    },
    {
      "anonymous": false,
      "inputs": [
        {
          "indexed": false,
          "internalType": "uint256",
          "name": "oldVotingDelay",
          "type": "uint256"
        },
        {
          "indexed": false,
          "internalType": "uint256",
          "name": "newVotingDelay",
          "type": "uint256"
        }
      ],
      "name": "VotingDelaySet",
      "type": "event"
    },
    {
      "anonymous": false,
      "inputs": [
        {
          "indexed": false,
          "internalType": "uint256",
          "name": "oldVotingPeriod",
          "type": "uint256"
        },
        {
          "indexed": false,
          "internalType": "uint256",
          "name": "newVotingPeriod",
          "type": "uint256"
        }
      ],
      "name": "VotingPeriodSet",
      "type": "event"
    },
    {
      "inputs": [],
      "name": "BALLOT_TYPEHASH",
      "outputs": [
        {
          "internalType": "bytes32",
          "name": "",
          "type": "bytes32"
        }
      ],
      "stateMutability": "view",
      "type": "function"
    },
    {
      "inputs": [],
      "name": "COUNTING_MODE",
      "outputs": [
        {
          "internalType": "string",
          "name": "",
          "type": "string"
        }
      ],
      "stateMutability": "pure",
      "type": "function"
    },
    {
      "inputs": [
        {
          "internalType": "uint256",
          "name": "proposalId",
          "type": "uint256"
        },
        {
          "internalType": "uint8",
          "name": "support",
          "type": "uint8"
        }
      ],
      "name": "castVote",
      "outputs": [
        {
          "internalType": "uint256",
          "name": "",
          "type": "uint256"
        }
      ],
      "stateMutability": "nonpayable",
      "type": "function"
    },
    {
      "inputs": [
        {
          "internalType": "uint256",
          "name": "proposalId",
          "type": "uint256"
        },
        {
          "internalType": "uint8",
          "name": "support",
          "type": "uint8"
        },
        {
          "internalType": "uint8",
          "name": "v",
          "type": "uint8"
        },
        {
          "internalType": "bytes32",
          "name": "r",
          "type": "bytes32"
        },
        {
          "internalType": "bytes32",
          "name": "s",
          "type": "bytes32"
        }
      ],
      "name": "castVoteBySig",
      "outputs": [
        {
          "internalType": "uint256",
          "name": "",
          "type": "uint256"
        }
      ],
      "stateMutability": "nonpayable",
      "type": "function"
    },
    {
      "inputs": [
        {
          "internalType": "uint256",
          "name": "proposalId",
          "type": "uint256"
        },
        {
          "internalType": "uint8",
          "name": "support",
          "type": "uint8"
        },
        {
          "internalType": "string",
          "name": "reason",
          "type": "string"
        }
      ],
      "name": "castVoteWithReason",
      "outputs": [
        {
          "internalType": "uint256",
          "name": "",
          "type": "uint256"
        }
      ],
      "stateMutability": "nonpayable",
      "type": "function"
    },
    {
      "inputs": [
        {
          "internalType": "address[]",
          "name": "targets",
          "type": "address[]"
        },
        {
          "internalType": "uint256[]",
          "name": "values",
          "type": "uint256[]"
        },
        {
          "internalType": "bytes[]",
          "name": "calldatas",
          "type": "bytes[]"
        },
        {
          "internalType": "bytes32",
          "name": "descriptionHash",
          "type": "bytes32"
        }
      ],
      "name": "execute",
      "outputs": [
        {
          "internalType": "uint256",
          "name": "",
          "type": "uint256"
        }
      ],
      "stateMutability": "payable",
      "type": "function"
    },
    {
      "inputs": [
        {
          "internalType": "address",
          "name": "account",
          "type": "address"
        },
        {
          "internalType": "uint256",
          "name": "blockNumber",
          "type": "uint256"
        }
      ],
      "name": "getVotes",
      "outputs": [
        {
          "internalType": "uint256",
          "name": "",
          "type": "uint256"
        }
      ],
      "stateMutability": "view",
      "type": "function"
    },
    {
      "inputs": [
        {
          "internalType": "uint256",
          "name": "proposalId",
          "type": "uint256"
        },
        {
          "internalType": "address",
          "name": "account",
          "type": "address"
        }
      ],
      "name": "hasVoted",
      "outputs": [
        {
          "internalType": "bool",
          "name": "",
          "type": "bool"
        }
      ],
      "stateMutability": "view",
      "type": "function"
    },
    {
      "inputs": [
        {
          "internalType": "address[]",
          "name": "targets",
          "type": "address[]"
        },
        {
          "internalType": "uint256[]",
          "name": "values",
          "type": "uint256[]"
        },
        {
          "internalType": "bytes[]",
          "name": "calldatas",
          "type": "bytes[]"
        },
        {
          "internalType": "bytes32",
          "name": "descriptionHash",
          "type": "bytes32"
        }
      ],
      "name": "hashProposal",
      "outputs": [
        {
          "internalType": "uint256",
          "name": "",
          "type": "uint256"
        }
      ],
      "stateMutability": "pure",
      "type": "function"
    },
    {
      "inputs": [],
      "name": "name",
      "outputs": [
        {
          "internalType": "string",
          "name": "",
          "type": "string"
        }
      ],
      "stateMutability": "view",
      "type": "function"
    },
    {
      "inputs": [
        {
          "internalType": "uint256",
          "name": "proposalId",
          "type": "uint256"
        }
      ],
      "name": "proposalDeadline",
      "outputs": [
        {
          "internalType": "uint256",
          "name": "",
          "type": "uint256"
        }
      ],
      "stateMutability": "view",
      "type": "function"
    },
    {
      "inputs": [
        {
          "internalType": "uint256",
          "name": "proposalId",
          "type": "uint256"
        }
      ],
      "name": "proposalEta",
      "outputs": [
        {
          "internalType": "uint256",
          "name": "",
          "type": "uint256"
        }
      ],
      "stateMutability": "view",
      "type": "function"
    },
    {
      "inputs": [
        {
          "internalType": "uint256",
          "name": "proposalId",
          "type": "uint256"
        }
      ],
      "name": "proposalSnapshot",
      "outputs": [
        {
          "internalType": "uint256",
          "name": "",
          "type": "uint256"
        }
      ],
      "stateMutability": "view",
      "type": "function"
    },
    {
      "inputs": [],
      "name": "proposalThreshold",
      "outputs": [
        {
          "internalType": "uint256",
          "name": "",
          "type": "uint256"
        }
      ],
      "stateMutability": "view",
      "type": "function"
    },
    {
      "inputs": [
        {
          "internalType": "uint256",
          "name": "proposalId",
          "type": "uint256"
        }
      ],
      "name": "proposalVotes",
      "outputs": [
        {
          "internalType": "uint256",
          "name": "againstVotes",
          "type": "uint256"
        },
        {
          "internalType": "uint256",
          "name": "forVotes",
          "type": "uint256"
        },
        {
          "internalType": "uint256",
          "name": "abstainVotes",
          "type": "uint256"
        }
      ],
      "stateMutability": "view",
      "type": "function"
    },
    {
      "inputs": [
        {
          "internalType": "address[]",
          "name": "targets",
          "type": "address[]"
        },
        {
          "internalType": "uint256[]",
          "name": "values",
          "type": "uint256[]"
        },
        {
          "internalType": "bytes[]",
          "name": "calldatas",
          "type": "bytes[]"
        },
        {
          "internalType": "string",
          "name": "description",
          "type": "string"
        }
      ],
      "name": "propose",
      "outputs": [
        {
          "internalType": "uint256",
          "name": "",
          "type": "uint256"
        }
      ],
      "stateMutability": "nonpayable",
      "type": "function"
    },
    {
      "inputs": [
        {
          "internalType": "address[]",
          "name": "targets",
          "type": "address[]"
        },
        {
          "internalType": "uint256[]",
          "name": "values",
          "type": "uint256[]"
        },
        {
          "internalType": "bytes[]",
          "name": "calldatas",
          "type": "bytes[]"
        },
        {
          "internalType": "bytes32",
          "name": "descriptionHash",
          "type": "bytes32"
        }
      ],
      "name": "queue",
      "outputs": [
        {
          "internalType": "uint256",
          "name": "",
          "type": "uint256"
        }
      ],
      "stateMutability": "nonpayable",
      "type": "function"
    },
    {
      "inputs": [
        {
          "internalType": "uint256",
          "name": "blockNumber",
          "type": "uint256"
        }
      ],
      "name": "quorum",
      "outputs": [
        {
          "internalType": "uint256",
          "name": "",
          "type": "uint256"
        }
      ],
      "stateMutability": "view",
      "type": "function"
    },
    {
      "inputs": [],
      "name": "quorumDenominator",
      "outputs": [
        {
          "internalType": "uint256",
          "name": "",
          "type": "uint256"
        }
      ],
      "stateMutability": "view",
      "type": "function"
    },
    {
      "inputs": [],
      "name": "quorumNumerator",
      "outputs": [
        {
          "internalType": "uint256",
          "name": "",
          "type": "uint256"
        }
      ],
      "stateMutability": "view",
      "type": "function"
    },
    {
      "inputs": [
        {
          "internalType": "address",
          "name": "target",
          "type": "address"
        },
        {
          "internalType": "uint256",
          "name": "value",
          "type": "uint256"
        },
        {
          "internalType": "bytes",
          "name": "data",
          "type": "bytes"
        }
      ],
      "name": "relay",
      "outputs": [],
      "stateMutability": "nonpayable",
      "type": "function"
    },
    {
      "inputs": [
        {
          "internalType": "uint256",
          "name": "newProposalThreshold",
          "type": "uint256"
        }
      ],
      "name": "setProposalThreshold",
      "outputs": [],
      "stateMutability": "nonpayable",
      "type": "function"
    },
    {
      "inputs": [
        {
          "internalType": "uint256",
          "name": "newVotingDelay",
          "type": "uint256"
        }
      ],
      "name": "setVotingDelay",
      "outputs": [],
      "stateMutability": "nonpayable",
      "type": "function"
    },
    {
      "inputs": [
        {
          "internalType": "uint256",
          "name": "newVotingPeriod",
          "type": "uint256"
        }
      ],
      "name": "setVotingPeriod",
      "outputs": [],
      "stateMutability": "nonpayable",
      "type": "function"
    },
    {
      "inputs": [
        {
          "internalType": "uint256",
          "name": "proposalId",
          "type": "uint256"
        }
      ],
      "name": "state",
      "outputs": [
        {
          "internalType": "enum IGovernor.ProposalState",
          "name": "",
          "type": "uint8"
        }
      ],
      "stateMutability": "view",
      "type": "function"
    },
    {
      "inputs": [
        {
          "internalType": "bytes4",
          "name": "interfaceId",
          "type": "bytes4"
        }
      ],
      "name": "supportsInterface",
      "outputs": [
        {
          "internalType": "bool",
          "name": "",
          "type": "bool"
        }
      ],
      "stateMutability": "view",
      "type": "function"
    },
    {
      "inputs": [],
      "name": "timelock",
      "outputs": [
        {
          "internalType": "address",
          "name": "",
          "type": "address"
        }
      ],
      "stateMutability": "view",
      "type": "function"
    },
    {
      "inputs": [],
      "name": "token",
      "outputs": [
        {
          "internalType": "contract IVotes",
          "name": "",
          "type": "address"
        }
      ],
      "stateMutability": "view",
      "type": "function"
    },
    {
      "inputs": [
        {
          "internalType": "uint256",
          "name": "newQuorumNumerator",
          "type": "uint256"
        }
      ],
      "name": "updateQuorumNumerator",
      "outputs": [],
      "stateMutability": "nonpayable",
      "type": "function"
    },
    {
      "inputs": [
        {
          "internalType": "contract TimelockController",
          "name": "newTimelock",
          "type": "address"
        }
      ],
      "name": "updateTimelock",
      "outputs": [],
      "stateMutability": "nonpayable",
      "type": "function"
    },
    {
      "inputs": [],
      "name": "version",
      "outputs": [
        {
          "internalType": "string",
          "name": "",
          "type": "string"
        }
      ],
      "stateMutability": "view",
      "type": "function"
    },
    {
      "inputs": [],
      "name": "votingDelay",
      "outputs": [
        {
          "internalType": "uint256",
          "name": "",
          "type": "uint256"
        }
      ],
      "stateMutability": "view",
      "type": "function"
    },
    {
      "inputs": [],
      "name": "votingPeriod",
      "outputs": [
        {
          "internalType": "uint256",
          "name": "",
          "type": "uint256"
        }
      ],
      "stateMutability": "view",
      "type": "function"
    },
    {
      "stateMutability": "payable",
      "type": "receive"
    }
  ],
  "transactionHash": "0x30fb8b6bd857bc6cf2ef899a62657d8fa92db05d1d82078a12b5ad13db1ee6b7",
  "args": [
    "0x5FbDB2315678afecb367f032d93F642f64180aa3",
    "0x9fE46736679d2D9a65F0992F2272dE9f3c7fa6e0",
    1,
    5,
    4
  ],
  "numDeployments": 1,
  "solcInputHash": "b08991c19a46be2e22bf928e8f70b86d",
  "bytecode": "0x6101606040523480156200001257600080fd5b5060405162005b9f38038062005b9f833981810160405281019062000038919062000695565b838186858560006040518060400160405280601081526020017f476f7665726e6f72436f6e7472616374000000000000000000000000000000008152508062000086620001f360201b60201c565b60008280519060200120905060008280519060200120905060007f8b73c3c69bb8fe3d512ecc4cf759cc79239f7b179b0ffacaa9a75d522b39400f90508260e081815250508161010081815250504660a08181525050620000ef8184846200023060201b60201c565b608081815250503073ffffffffffffffffffffffffffffffffffffffff1660c08173ffffffffffffffffffffffffffffffffffffffff1660601b815250508061012081815250505050505050806000908051906020019062000153929190620004d3565b505062000166836200026c60201b60201c565b6200017782620002b360201b60201c565b62000188816200034060201b60201c565b5050508073ffffffffffffffffffffffffffffffffffffffff166101408173ffffffffffffffffffffffffffffffffffffffff1660601b8152505050620001d5816200038760201b60201c565b50620001e7816200042960201b60201c565b505050505050620009dd565b60606040518060400160405280600181526020017f3100000000000000000000000000000000000000000000000000000000000000815250905090565b600083838346306040516020016200024d9594939291906200075a565b6040516020818303038152906040528051906020012090509392505050565b7fc565b045403dc03c2eea82b81a0465edad9e2e7fc4d97e11421c209da93d7a9360025482604051620002a1929190620007b7565b60405180910390a18060028190555050565b60008111620002f9576040517f08c379a0000000000000000000000000000000000000000000000000000000008152600401620002f0906200086b565b60405180910390fd5b7f7e3f7f0708a84de9203036abaa450dccc85ad5ff52f78c170f3edb55cf5e8828600354826040516200032e929190620007b7565b60405180910390a18060038190555050565b7fccb45da8d5717e6c4544694297c4ba5cf151d455c9bb0ed4fc7a38411bc054616004548260405162000375929190620007b7565b60405180910390a18060048190555050565b62000397620004ca60201b60201c565b811115620003dc576040517f08c379a0000000000000000000000000000000000000000000000000000000008152600401620003d39062000929565b60405180910390fd5b60006006549050816006819055507f0553476bf02ef2726e8ce5ced78d63e26e602e4a2257b1f559418e24b463399781836040516200041d929190620007b7565b60405180910390a15050565b7f08f74ea46ef7894f65eabfb5e6e695de773a000b47c529ab559178069b226401600760009054906101000a900473ffffffffffffffffffffffffffffffffffffffff16826040516200047e9291906200094b565b60405180910390a180600760006101000a81548173ffffffffffffffffffffffffffffffffffffffff021916908373ffffffffffffffffffffffffffffffffffffffff16021790555050565b60006064905090565b828054620004e190620009a7565b90600052602060002090601f01602090048101928262000505576000855562000551565b82601f106200052057805160ff191683800117855562000551565b8280016001018555821562000551579182015b828111156200055057825182559160200191906001019062000533565b5b50905062000560919062000564565b5090565b5b808211156200057f57600081600090555060010162000565565b5090565b600080fd5b600073ffffffffffffffffffffffffffffffffffffffff82169050919050565b6000620005b58262000588565b9050919050565b6000620005c982620005a8565b9050919050565b620005db81620005bc565b8114620005e757600080fd5b50565b600081519050620005fb81620005d0565b92915050565b60006200060e8262000588565b9050919050565b6000620006228262000601565b9050919050565b620006348162000615565b81146200064057600080fd5b50565b600081519050620006548162000629565b92915050565b6000819050919050565b6200066f816200065a565b81146200067b57600080fd5b50565b6000815190506200068f8162000664565b92915050565b600080600080600060a08688031215620006b457620006b362000583565b5b6000620006c488828901620005ea565b9550506020620006d78882890162000643565b9450506040620006ea888289016200067e565b9350506060620006fd888289016200067e565b925050608062000710888289016200067e565b9150509295509295909350565b6000819050919050565b62000732816200071d565b82525050565b62000743816200065a565b82525050565b6200075481620005a8565b82525050565b600060a08201905062000771600083018862000727565b62000780602083018762000727565b6200078f604083018662000727565b6200079e606083018562000738565b620007ad608083018462000749565b9695505050505050565b6000604082019050620007ce600083018562000738565b620007dd602083018462000738565b9392505050565b600082825260208201905092915050565b7f476f7665726e6f7253657474696e67733a20766f74696e6720706572696f642060008201527f746f6f206c6f7700000000000000000000000000000000000000000000000000602082015250565b600062000853602783620007e4565b91506200086082620007f5565b604082019050919050565b60006020820190508181036000830152620008868162000844565b9050919050565b7f476f7665726e6f72566f74657351756f72756d4672616374696f6e3a2071756f60008201527f72756d4e756d657261746f72206f7665722071756f72756d44656e6f6d696e6160208201527f746f720000000000000000000000000000000000000000000000000000000000604082015250565b600062000911604383620007e4565b91506200091e826200088d565b606082019050919050565b60006020820190508181036000830152620009448162000902565b9050919050565b600060408201905062000962600083018562000749565b62000971602083018462000749565b9392505050565b7f4e487b7100000000000000000000000000000000000000000000000000000000600052602260045260246000fd5b60006002820490506001821680620009c057607f821691505b60208210811415620009d757620009d662000978565b5b50919050565b60805160a05160c05160601c60e05161010051610120516101405160601c61515362000a4c6000396000818161161d01528181611fea01526120f40152600061237c015260006123be0152600061239d015260006122d2015260006123280152600061235101526151536000f3fe6080604052600436106101f25760003560e01c80637d5e81e21161010d578063c59057e4116100a0578063ea0217cf1161006f578063ea0217cf146107da578063eb9019d414610803578063ece40cc114610840578063f8ce560a14610869578063fc0c546a146108a657610238565b8063c59057e41461071c578063d33219b414610759578063dd4e2ba514610784578063deaaa7cc146107af57610238565b8063ab58fb8e116100dc578063ab58fb8e1461064e578063b58131b01461068b578063c01f9e37146106b6578063c28bc2fa146106f357610238565b80637d5e81e21461059257806397c3d334146105cf578063a7713a70146105fa578063a890c9101461062557610238565b80633bccf4fd1161018557806354fd4d501161015457806354fd4d50146104c457806356781388146104ef57806370b0f6601461052c5780637b3c71d31461055557610238565b80633bccf4fd146103ce5780633e4f49e61461040b5780634385963214610448578063544ffc9c1461048557610238565b8063160cbed7116101c1578063160cbed7146102f95780632656227d146103365780632d63f693146103665780633932abb1146103a357610238565b806301ffc9a71461023d57806302a251a31461027a57806306f3f9e6146102a557806306fdde03146102ce57610238565b36610238573073ffffffffffffffffffffffffffffffffffffffff166102166108d1565b73ffffffffffffffffffffffffffffffffffffffff161461023657600080fd5b005b600080fd5b34801561024957600080fd5b50610264600480360381019061025f9190612dd8565b6108e0565b6040516102719190612e20565b60405180910390f35b34801561028657600080fd5b5061028f6108f2565b60405161029c9190612e54565b60405180910390f35b3480156102b157600080fd5b506102cc60048036038101906102c79190612e9b565b610901565b005b3480156102da57600080fd5b506102e3610989565b6040516102f09190612f61565b60405180910390f35b34801561030557600080fd5b50610320600480360381019061031b91906133b8565b610a1b565b60405161032d9190612e54565b60405180910390f35b610350600480360381019061034b91906133b8565b610cf3565b60405161035d9190612e54565b60405180910390f35b34801561037257600080fd5b5061038d60048036038101906103889190612e9b565b610e26565b60405161039a9190612e54565b60405180910390f35b3480156103af57600080fd5b506103b8610e94565b6040516103c59190612e54565b60405180910390f35b3480156103da57600080fd5b506103f560048036038101906103f091906134ac565b610ea3565b6040516104029190612e54565b60405180910390f35b34801561041757600080fd5b50610432600480360381019061042d9190612e9b565b610f2d565b60405161043f919061359e565b60405180910390f35b34801561045457600080fd5b5061046f600480360381019061046a91906135b9565b610f3f565b60405161047c9190612e20565b60405180910390f35b34801561049157600080fd5b506104ac60048036038101906104a79190612e9b565b610faa565b6040516104bb939291906135f9565b60405180910390f35b3480156104d057600080fd5b506104d9610fe2565b6040516104e69190612f61565b60405180910390f35b3480156104fb57600080fd5b5061051660048036038101906105119190613630565b61101f565b6040516105239190612e54565b60405180910390f35b34801561053857600080fd5b50610553600480360381019061054e9190612e9b565b611050565b005b34801561056157600080fd5b5061057c600480360381019061057791906136cb565b6110d8565b6040516105899190612e54565b60405180910390f35b34801561059e57600080fd5b506105b960048036038101906105b491906137e0565b611140565b6040516105c69190612e54565b60405180910390f35b3480156105db57600080fd5b506105e4611158565b6040516105f19190612e54565b60405180910390f35b34801561060657600080fd5b5061060f611161565b60405161061c9190612e54565b60405180910390f35b34801561063157600080fd5b5061064c60048036038101906106479190613907565b61116b565b005b34801561065a57600080fd5b5061067560048036038101906106709190612e9b565b6111f3565b6040516106829190612e54565b60405180910390f35b34801561069757600080fd5b506106a06112cf565b6040516106ad9190612e54565b60405180910390f35b3480156106c257600080fd5b506106dd60048036038101906106d89190612e9b565b6112de565b6040516106ea9190612e54565b60405180910390f35b3480156106ff57600080fd5b5061071a6004803603810190610715919061398a565b61134c565b005b34801561072857600080fd5b50610743600480360381019061073e91906133b8565b61141e565b6040516107509190612e54565b60405180910390f35b34801561076557600080fd5b5061076e61145a565b60405161077b9190613a0d565b60405180910390f35b34801561079057600080fd5b50610799611484565b6040516107a69190612f61565b60405180910390f35b3480156107bb57600080fd5b506107c46114c1565b6040516107d19190613a37565b60405180910390f35b3480156107e657600080fd5b5061080160048036038101906107fc9190612e9b565b6114e5565b005b34801561080f57600080fd5b5061082a60048036038101906108259190613a52565b61156d565b6040516108379190612e54565b60405180910390f35b34801561084c57600080fd5b5061086760048036038101906108629190612e9b565b611581565b005b34801561087557600080fd5b50610890600480360381019061088b9190612e9b565b611609565b60405161089d9190612e54565b60405180910390f35b3480156108b257600080fd5b506108bb61161b565b6040516108c89190613af1565b60405180910390f35b60006108db61163f565b905090565b60006108eb82611669565b9050919050565b60006108fc6116e3565b905090565b6109096108d1565b73ffffffffffffffffffffffffffffffffffffffff166109276116ed565b73ffffffffffffffffffffffffffffffffffffffff161461097d576040517f08c379a000000000000000000000000000000000000000000000000000000000815260040161097490613b58565b60405180910390fd5b610986816116f5565b50565b60606000805461099890613ba7565b80601f01602080910402602001604051908101604052809291908181526020018280546109c490613ba7565b8015610a115780601f106109e657610100808354040283529160200191610a11565b820191906000526020600020905b8154815290600101906020018083116109f457829003601f168201915b5050505050905090565b600080610a2a8686868661141e565b905060046007811115610a4057610a3f613527565b5b610a4982610f2d565b6007811115610a5b57610a5a613527565b5b14610a9b576040517f08c379a0000000000000000000000000000000000000000000000000000000008152600401610a9290613c4b565b60405180910390fd5b6000600760009054906101000a900473ffffffffffffffffffffffffffffffffffffffff1673ffffffffffffffffffffffffffffffffffffffff1663f27a0c926040518163ffffffff1660e01b815260040160206040518083038186803b158015610b0557600080fd5b505afa158015610b19573d6000803e3d6000fd5b505050506040513d601f19601f82011682018060405250810190610b3d9190613c80565b9050600760009054906101000a900473ffffffffffffffffffffffffffffffffffffffff1673ffffffffffffffffffffffffffffffffffffffff1663b1c5f4278888886000896040518663ffffffff1660e01b8152600401610ba3959493929190613f88565b60206040518083038186803b158015610bbb57600080fd5b505afa158015610bcf573d6000803e3d6000fd5b505050506040513d601f19601f82011682018060405250810190610bf39190614005565b6008600084815260200190815260200160002081905550600760009054906101000a900473ffffffffffffffffffffffffffffffffffffffff1673ffffffffffffffffffffffffffffffffffffffff16638f2a0bb0888888600089876040518763ffffffff1660e01b8152600401610c7096959493929190614032565b600060405180830381600087803b158015610c8a57600080fd5b505af1158015610c9e573d6000803e3d6000fd5b505050507f9a2e42fd6722813d69113e7d0079d3d940171428df7373df9c7f7617cfda2892828242610cd091906140d7565b604051610cde92919061412d565b60405180910390a18192505050949350505050565b600080610d028686868661141e565b90506000610d0f82610f2d565b905060046007811115610d2557610d24613527565b5b816007811115610d3857610d37613527565b5b1480610d68575060056007811115610d5357610d52613527565b5b816007811115610d6657610d65613527565b5b145b610da7576040517f08c379a0000000000000000000000000000000000000000000000000000000008152600401610d9e90613c4b565b60405180910390fd5b600180600084815260200190815260200160002060020160006101000a81548160ff0219169083151502179055507f712ae1383f79ac853f8d882153778e0260ef8f03b504e2866e0593e04d2b291f82604051610e049190612e54565b60405180910390a1610e19828888888861178a565b8192505050949350505050565b6000610e83600160008481526020019081526020016000206000016040518060200160405290816000820160009054906101000a900467ffffffffffffffff1667ffffffffffffffff1667ffffffffffffffff168152505061179e565b67ffffffffffffffff169050919050565b6000610e9e6117ac565b905090565b600080610f04610efc7f150214d74d59b7d1e90c73fc22ef3d991dd0a76b046543d4d80ab92d2a50328f8989604051602001610ee193929190614165565b604051602081830303815290604052805190602001206117b6565b8686866117d0565b9050610f21878288604051806020016040528060008152506117fb565b91505095945050505050565b6000610f388261194f565b9050919050565b60006005600084815260200190815260200160002060030160008373ffffffffffffffffffffffffffffffffffffffff1673ffffffffffffffffffffffffffffffffffffffff16815260200190815260200160002060009054906101000a900460ff16905092915050565b600080600080600560008681526020019081526020016000209050806000015481600101548260020154935093509350509193909250565b60606040518060400160405280600181526020017f3100000000000000000000000000000000000000000000000000000000000000815250905090565b60008061102a6116ed565b9050611047848285604051806020016040528060008152506117fb565b91505092915050565b6110586108d1565b73ffffffffffffffffffffffffffffffffffffffff166110766116ed565b73ffffffffffffffffffffffffffffffffffffffff16146110cc576040517f08c379a00000000000000000000000000000000000000000000000000000000081526004016110c390613b58565b60405180910390fd5b6110d581611b41565b50565b6000806110e36116ed565b905061113586828787878080601f016020809104026020016040519081016040528093929190818152602001838380828437600081840152601f19601f820116905080830192505050505050506117fb565b915050949350505050565b600061114e85858585611b86565b9050949350505050565b60006064905090565b6000600654905090565b6111736108d1565b73ffffffffffffffffffffffffffffffffffffffff166111916116ed565b73ffffffffffffffffffffffffffffffffffffffff16146111e7576040517f08c379a00000000000000000000000000000000000000000000000000000000081526004016111de90613b58565b60405180910390fd5b6111f081611e86565b50565b600080600760009054906101000a900473ffffffffffffffffffffffffffffffffffffffff1673ffffffffffffffffffffffffffffffffffffffff1663d45c443560086000868152602001908152602001600020546040518263ffffffff1660e01b81526004016112649190613a37565b60206040518083038186803b15801561127c57600080fd5b505afa158015611290573d6000803e3d6000fd5b505050506040513d601f19601f820116820180604052508101906112b49190613c80565b9050600181146112c457806112c7565b60005b915050919050565b60006112d9611f25565b905090565b600061133b600160008481526020019081526020016000206001016040518060200160405290816000820160009054906101000a900467ffffffffffffffff1667ffffffffffffffff1667ffffffffffffffff168152505061179e565b67ffffffffffffffff169050919050565b6113546108d1565b73ffffffffffffffffffffffffffffffffffffffff166113726116ed565b73ffffffffffffffffffffffffffffffffffffffff16146113c8576040517f08c379a00000000000000000000000000000000000000000000000000000000081526004016113bf90613b58565b60405180910390fd5b6114178483838080601f016020809104026020016040519081016040528093929190818152602001838380828437600081840152601f19601f8201169050808301925050505050505085611f2f565b5050505050565b600084848484604051602001611437949392919061419c565b6040516020818303038152906040528051906020012060001c9050949350505050565b6000600760009054906101000a900473ffffffffffffffffffffffffffffffffffffffff16905090565b60606040518060400160405280602081526020017f737570706f72743d627261766f2671756f72756d3d666f722c6162737461696e815250905090565b7f150214d74d59b7d1e90c73fc22ef3d991dd0a76b046543d4d80ab92d2a50328f81565b6114ed6108d1565b73ffffffffffffffffffffffffffffffffffffffff1661150b6116ed565b73ffffffffffffffffffffffffffffffffffffffff1614611561576040517f08c379a000000000000000000000000000000000000000000000000000000000815260040161155890613b58565b60405180910390fd5b61156a81611f5e565b50565b60006115798383611fe6565b905092915050565b6115896108d1565b73ffffffffffffffffffffffffffffffffffffffff166115a76116ed565b73ffffffffffffffffffffffffffffffffffffffff16146115fd576040517f08c379a00000000000000000000000000000000000000000000000000000000081526004016115f490613b58565b60405180910390fd5b6116068161209b565b50565b6000611614826120e0565b9050919050565b7f000000000000000000000000000000000000000000000000000000000000000081565b6000600760009054906101000a900473ffffffffffffffffffffffffffffffffffffffff16905090565b60007f6e665ced000000000000000000000000000000000000000000000000000000007bffffffffffffffffffffffffffffffffffffffffffffffffffffffff1916827bffffffffffffffffffffffffffffffffffffffffffffffffffffffff191614806116dc57506116db826121b6565b5b9050919050565b6000600354905090565b600033905090565b6116fd611158565b81111561173f576040517f08c379a00000000000000000000000000000000000000000000000000000000081526004016117369061428e565b60405180910390fd5b60006006549050816006819055507f0553476bf02ef2726e8ce5ced78d63e26e602e4a2257b1f559418e24b4633997818360405161177e92919061412d565b60405180910390a15050565b6117978585858585612230565b5050505050565b600081600001519050919050565b6000600254905090565b60006117c96117c36122ce565b836123e8565b9050919050565b60008060006117e18787878761241b565b915091506117ee81612528565b8192505050949350505050565b6000806001600087815260200190815260200160002090506001600781111561182757611826613527565b5b61183087610f2d565b600781111561184257611841613527565b5b14611882576040517f08c379a000000000000000000000000000000000000000000000000000000000815260040161187990614320565b60405180910390fd5b60006118e0866118d1846000016040518060200160405290816000820160009054906101000a900467ffffffffffffffff1667ffffffffffffffff1667ffffffffffffffff168152505061179e565b67ffffffffffffffff1661156d565b90506118ee878787846126fd565b8573ffffffffffffffffffffffffffffffffffffffff167fb8e138887d0aa13bab447e82de9d5c1777041ecd21ca36ba824ff1e6c07ddda48887848860405161193a9493929190614340565b60405180910390a28092505050949350505050565b60008061195b83612903565b90506004600781111561197157611970613527565b5b81600781111561198457611983613527565b5b146119925780915050611b3c565b6000600860008581526020019081526020016000205490506000801b8114156119bf578192505050611b3c565b600760009054906101000a900473ffffffffffffffffffffffffffffffffffffffff1673ffffffffffffffffffffffffffffffffffffffff16632ab0f529826040518263ffffffff1660e01b8152600401611a1a9190613a37565b60206040518083038186803b158015611a3257600080fd5b505afa158015611a46573d6000803e3d6000fd5b505050506040513d601f19601f82011682018060405250810190611a6a91906143b8565b15611a7a57600792505050611b3c565b600760009054906101000a900473ffffffffffffffffffffffffffffffffffffffff1673ffffffffffffffffffffffffffffffffffffffff1663584b153e826040518263ffffffff1660e01b8152600401611ad59190613a37565b60206040518083038186803b158015611aed57600080fd5b505afa158015611b01573d6000803e3d6000fd5b505050506040513d601f19601f82011682018060405250810190611b2591906143b8565b15611b3557600592505050611b3c565b6002925050505b919050565b7fc565b045403dc03c2eea82b81a0465edad9e2e7fc4d97e11421c209da93d7a9360025482604051611b7492919061412d565b60405180910390a18060028190555050565b6000611b906112cf565b611ba633600143611ba191906143e5565b61156d565b1015611be7576040517f08c379a0000000000000000000000000000000000000000000000000000000008152600401611bde906144b1565b60405180910390fd5b6000611bfc868686868051906020012061141e565b90508451865114611c42576040517f08c379a0000000000000000000000000000000000000000000000000000000008152600401611c3990614543565b60405180910390fd5b8351865114611c86576040517f08c379a0000000000000000000000000000000000000000000000000000000008152600401611c7d90614543565b60405180910390fd5b6000865111611cca576040517f08c379a0000000000000000000000000000000000000000000000000000000008152600401611cc1906145af565b60405180910390fd5b6000600160008381526020019081526020016000209050611d2a816000016040518060200160405290816000820160009054906101000a900467ffffffffffffffff1667ffffffffffffffff1667ffffffffffffffff1681525050612a18565b611d69576040517f08c379a0000000000000000000000000000000000000000000000000000000008152600401611d6090614641565b60405180910390fd5b6000611d7b611d76610e94565b612a32565b611d8443612a32565b611d8e9190614675565b90506000611da2611d9d6108f2565b612a32565b82611dad9190614675565b9050611dc58284600001612a8990919063ffffffff16565b611ddb8184600101612a8990919063ffffffff16565b7f7d84a6263ae0d98d3329bd7b46bb4e8d6f98cd35a7adb45c274c8b7fd5ebd5e084611e056116ed565b8b8b8d5167ffffffffffffffff811115611e2257611e21612f88565b5b604051908082528060200260200182016040528015611e5557816020015b6060815260200190600190039081611e405790505b508c88888e604051611e6f999897969594939291906147f0565b60405180910390a183945050505050949350505050565b7f08f74ea46ef7894f65eabfb5e6e695de773a000b47c529ab559178069b226401600760009054906101000a900473ffffffffffffffffffffffffffffffffffffffff1682604051611ed99291906148a0565b60405180910390a180600760006101000a81548173ffffffffffffffffffffffffffffffffffffffff021916908373ffffffffffffffffffffffffffffffffffffffff16021790555050565b6000600454905090565b6060611f558484846040518060600160405280602981526020016150f560299139612ab8565b90509392505050565b60008111611fa1576040517f08c379a0000000000000000000000000000000000000000000000000000000008152600401611f989061493b565b60405180910390fd5b7f7e3f7f0708a84de9203036abaa450dccc85ad5ff52f78c170f3edb55cf5e882860035482604051611fd492919061412d565b60405180910390a18060038190555050565b60007f000000000000000000000000000000000000000000000000000000000000000073ffffffffffffffffffffffffffffffffffffffff16633a46b1a884846040518363ffffffff1660e01b815260040161204392919061495b565b60206040518083038186803b15801561205b57600080fd5b505afa15801561206f573d6000803e3d6000fd5b505050506040513d601f19601f820116820180604052508101906120939190613c80565b905092915050565b7fccb45da8d5717e6c4544694297c4ba5cf151d455c9bb0ed4fc7a38411bc05461600454826040516120ce92919061412d565b60405180910390a18060048190555050565b60006120ea611158565b6120f2611161565b7f000000000000000000000000000000000000000000000000000000000000000073ffffffffffffffffffffffffffffffffffffffff16638e539e8c856040518263ffffffff1660e01b815260040161214b9190612e54565b60206040518083038186803b15801561216357600080fd5b505afa158015612177573d6000803e3d6000fd5b505050506040513d601f19601f8201168201806040525081019061219b9190613c80565b6121a59190614984565b6121af9190614a0d565b9050919050565b60007fbf26d897000000000000000000000000000000000000000000000000000000007bffffffffffffffffffffffffffffffffffffffffffffffffffffffff1916827bffffffffffffffffffffffffffffffffffffffffffffffffffffffff19161480612229575061222882612bcc565b5b9050919050565b600760009054906101000a900473ffffffffffffffffffffffffffffffffffffffff1673ffffffffffffffffffffffffffffffffffffffff1663e38335e5348686866000876040518763ffffffff1660e01b8152600401612295959493929190613f88565b6000604051808303818588803b1580156122ae57600080fd5b505af11580156122c2573d6000803e3d6000fd5b50505050505050505050565b60007f000000000000000000000000000000000000000000000000000000000000000073ffffffffffffffffffffffffffffffffffffffff163073ffffffffffffffffffffffffffffffffffffffff1614801561234a57507f000000000000000000000000000000000000000000000000000000000000000046145b15612377577f000000000000000000000000000000000000000000000000000000000000000090506123e5565b6123e27f00000000000000000000000000000000000000000000000000000000000000007f00000000000000000000000000000000000000000000000000000000000000007f0000000000000000000000000000000000000000000000000000000000000000612c36565b90505b90565b600082826040516020016123fd929190614ab6565b60405160208183030381529060405280519060200120905092915050565b6000807f7fffffffffffffffffffffffffffffff5d576e7357a4501ddfe92f46681b20a08360001c111561245657600060039150915061251f565b601b8560ff161415801561246e5750601c8560ff1614155b1561248057600060049150915061251f565b6000600187878787604051600081526020016040526040516124a59493929190614aed565b6020604051602081039080840390855afa1580156124c7573d6000803e3d6000fd5b505050602060405103519050600073ffffffffffffffffffffffffffffffffffffffff168173ffffffffffffffffffffffffffffffffffffffff1614156125165760006001925092505061251f565b80600092509250505b94509492505050565b6000600481111561253c5761253b613527565b5b81600481111561254f5761254e613527565b5b141561255a576126fa565b6001600481111561256e5761256d613527565b5b81600481111561258157612580613527565b5b14156125c2576040517f08c379a00000000000000000000000000000000000000000000000000000000081526004016125b990614b7e565b60405180910390fd5b600260048111156125d6576125d5613527565b5b8160048111156125e9576125e8613527565b5b141561262a576040517f08c379a000000000000000000000000000000000000000000000000000000000815260040161262190614bea565b60405180910390fd5b6003600481111561263e5761263d613527565b5b81600481111561265157612650613527565b5b1415612692576040517f08c379a000000000000000000000000000000000000000000000000000000000815260040161268990614c7c565b60405180910390fd5b6004808111156126a5576126a4613527565b5b8160048111156126b8576126b7613527565b5b14156126f9576040517f08c379a00000000000000000000000000000000000000000000000000000000081526004016126f090614d0e565b60405180910390fd5b5b50565b60006005600086815260200190815260200160002090508060030160008573ffffffffffffffffffffffffffffffffffffffff1673ffffffffffffffffffffffffffffffffffffffff16815260200190815260200160002060009054906101000a900460ff16156127a3576040517f08c379a000000000000000000000000000000000000000000000000000000000815260040161279a90614da0565b60405180910390fd5b60018160030160008673ffffffffffffffffffffffffffffffffffffffff1673ffffffffffffffffffffffffffffffffffffffff16815260200190815260200160002060006101000a81548160ff0219169083151502179055506000600281111561281157612810613527565b5b60ff168360ff16141561283e578181600001600082825461283291906140d7565b925050819055506128fc565b6001600281111561285257612851613527565b5b60ff168360ff16141561287f578181600101600082825461287391906140d7565b925050819055506128fb565b60028081111561289257612891613527565b5b60ff168360ff1614156128bf57818160020160008282546128b391906140d7565b925050819055506128fa565b6040517f08c379a00000000000000000000000000000000000000000000000000000000081526004016128f190614e32565b60405180910390fd5b5b5b5050505050565b6000806001600084815260200190815260200160002090508060020160009054906101000a900460ff161561293c576007915050612a13565b8060020160019054906101000a900460ff161561295d576002915050612a13565b600061296884610e26565b905060008114156129ae576040517f08c379a00000000000000000000000000000000000000000000000000000000081526004016129a590614e9e565b60405180910390fd5b4381106129c057600092505050612a13565b60006129cb856112de565b90504381106129e05760019350505050612a13565b6129e985612c70565b80156129fa57506129f985612cb7565b5b15612a0b5760049350505050612a13565b600393505050505b919050565b600080826000015167ffffffffffffffff16149050919050565b600067ffffffffffffffff8016821115612a81576040517f08c379a0000000000000000000000000000000000000000000000000000000008152600401612a7890614f30565b60405180910390fd5b819050919050565b808260000160006101000a81548167ffffffffffffffff021916908367ffffffffffffffff1602179055505050565b606082471015612afd576040517f08c379a0000000000000000000000000000000000000000000000000000000008152600401612af490614fc2565b60405180910390fd5b612b0685612ce2565b612b45576040517f08c379a0000000000000000000000000000000000000000000000000000000008152600401612b3c9061502e565b60405180910390fd5b6000808673ffffffffffffffffffffffffffffffffffffffff168587604051612b6e919061508a565b60006040518083038185875af1925050503d8060008114612bab576040519150601f19603f3d011682016040523d82523d6000602084013e612bb0565b606091505b5091509150612bc0828286612d05565b92505050949350505050565b60007f01ffc9a7000000000000000000000000000000000000000000000000000000007bffffffffffffffffffffffffffffffffffffffffffffffffffffffff1916827bffffffffffffffffffffffffffffffffffffffffffffffffffffffff1916149050919050565b60008383834630604051602001612c519594939291906150a1565b6040516020818303038152906040528051906020012090509392505050565b60008060056000848152602001908152602001600020905080600201548160010154612c9c91906140d7565b612cad612ca885610e26565b611609565b1115915050919050565b6000806005600084815260200190815260200160002090508060000154816001015411915050919050565b6000808273ffffffffffffffffffffffffffffffffffffffff163b119050919050565b60608315612d1557829050612d65565b600083511115612d285782518084602001fd5b816040517f08c379a0000000000000000000000000000000000000000000000000000000008152600401612d5c9190612f61565b60405180910390fd5b9392505050565b6000604051905090565b600080fd5b600080fd5b60007fffffffff0000000000000000000000000000000000000000000000000000000082169050919050565b612db581612d80565b8114612dc057600080fd5b50565b600081359050612dd281612dac565b92915050565b600060208284031215612dee57612ded612d76565b5b6000612dfc84828501612dc3565b91505092915050565b60008115159050919050565b612e1a81612e05565b82525050565b6000602082019050612e356000830184612e11565b92915050565b6000819050919050565b612e4e81612e3b565b82525050565b6000602082019050612e696000830184612e45565b92915050565b612e7881612e3b565b8114612e8357600080fd5b50565b600081359050612e9581612e6f565b92915050565b600060208284031215612eb157612eb0612d76565b5b6000612ebf84828501612e86565b91505092915050565b600081519050919050565b600082825260208201905092915050565b60005b83811015612f02578082015181840152602081019050612ee7565b83811115612f11576000848401525b50505050565b6000601f19601f8301169050919050565b6000612f3382612ec8565b612f3d8185612ed3565b9350612f4d818560208601612ee4565b612f5681612f17565b840191505092915050565b60006020820190508181036000830152612f7b8184612f28565b905092915050565b600080fd5b7f4e487b7100000000000000000000000000000000000000000000000000000000600052604160045260246000fd5b612fc082612f17565b810181811067ffffffffffffffff82111715612fdf57612fde612f88565b5b80604052505050565b6000612ff2612d6c565b9050612ffe8282612fb7565b919050565b600067ffffffffffffffff82111561301e5761301d612f88565b5b602082029050602081019050919050565b600080fd5b600073ffffffffffffffffffffffffffffffffffffffff82169050919050565b600061305f82613034565b9050919050565b61306f81613054565b811461307a57600080fd5b50565b60008135905061308c81613066565b92915050565b60006130a56130a084613003565b612fe8565b905080838252602082019050602084028301858111156130c8576130c761302f565b5b835b818110156130f157806130dd888261307d565b8452602084019350506020810190506130ca565b5050509392505050565b600082601f8301126131105761310f612f83565b5b8135613120848260208601613092565b91505092915050565b600067ffffffffffffffff82111561314457613143612f88565b5b602082029050602081019050919050565b600061316861316384613129565b612fe8565b9050808382526020820190506020840283018581111561318b5761318a61302f565b5b835b818110156131b457806131a08882612e86565b84526020840193505060208101905061318d565b5050509392505050565b600082601f8301126131d3576131d2612f83565b5b81356131e3848260208601613155565b91505092915050565b600067ffffffffffffffff82111561320757613206612f88565b5b602082029050602081019050919050565b600080fd5b600067ffffffffffffffff82111561323857613237612f88565b5b61324182612f17565b9050602081019050919050565b82818337600083830152505050565b600061327061326b8461321d565b612fe8565b90508281526020810184848401111561328c5761328b613218565b5b61329784828561324e565b509392505050565b600082601f8301126132b4576132b3612f83565b5b81356132c484826020860161325d565b91505092915050565b60006132e06132db846131ec565b612fe8565b905080838252602082019050602084028301858111156133035761330261302f565b5b835b8181101561334a57803567ffffffffffffffff81111561332857613327612f83565b5b808601613335898261329f565b85526020850194505050602081019050613305565b5050509392505050565b600082601f83011261336957613368612f83565b5b81356133798482602086016132cd565b91505092915050565b6000819050919050565b61339581613382565b81146133a057600080fd5b50565b6000813590506133b28161338c565b92915050565b600080600080608085870312156133d2576133d1612d76565b5b600085013567ffffffffffffffff8111156133f0576133ef612d7b565b5b6133fc878288016130fb565b945050602085013567ffffffffffffffff81111561341d5761341c612d7b565b5b613429878288016131be565b935050604085013567ffffffffffffffff81111561344a57613449612d7b565b5b61345687828801613354565b9250506060613467878288016133a3565b91505092959194509250565b600060ff82169050919050565b61348981613473565b811461349457600080fd5b50565b6000813590506134a681613480565b92915050565b600080600080600060a086880312156134c8576134c7612d76565b5b60006134d688828901612e86565b95505060206134e788828901613497565b94505060406134f888828901613497565b9350506060613509888289016133a3565b925050608061351a888289016133a3565b9150509295509295909350565b7f4e487b7100000000000000000000000000000000000000000000000000000000600052602160045260246000fd5b6008811061356757613566613527565b5b50565b600081905061357882613556565b919050565b60006135888261356a565b9050919050565b6135988161357d565b82525050565b60006020820190506135b3600083018461358f565b92915050565b600080604083850312156135d0576135cf612d76565b5b60006135de85828601612e86565b92505060206135ef8582860161307d565b9150509250929050565b600060608201905061360e6000830186612e45565b61361b6020830185612e45565b6136286040830184612e45565b949350505050565b6000806040838503121561364757613646612d76565b5b600061365585828601612e86565b925050602061366685828601613497565b9150509250929050565b600080fd5b60008083601f84011261368b5761368a612f83565b5b8235905067ffffffffffffffff8111156136a8576136a7613670565b5b6020830191508360018202830111156136c4576136c361302f565b5b9250929050565b600080600080606085870312156136e5576136e4612d76565b5b60006136f387828801612e86565b945050602061370487828801613497565b935050604085013567ffffffffffffffff81111561372557613724612d7b565b5b61373187828801613675565b925092505092959194509250565b600067ffffffffffffffff82111561375a57613759612f88565b5b61376382612f17565b9050602081019050919050565b600061378361377e8461373f565b612fe8565b90508281526020810184848401111561379f5761379e613218565b5b6137aa84828561324e565b509392505050565b600082601f8301126137c7576137c6612f83565b5b81356137d7848260208601613770565b91505092915050565b600080600080608085870312156137fa576137f9612d76565b5b600085013567ffffffffffffffff81111561381857613817612d7b565b5b613824878288016130fb565b945050602085013567ffffffffffffffff81111561384557613844612d7b565b5b613851878288016131be565b935050604085013567ffffffffffffffff81111561387257613871612d7b565b5b61387e87828801613354565b925050606085013567ffffffffffffffff81111561389f5761389e612d7b565b5b6138ab878288016137b2565b91505092959194509250565b60006138c282613034565b9050919050565b60006138d4826138b7565b9050919050565b6138e4816138c9565b81146138ef57600080fd5b50565b600081359050613901816138db565b92915050565b60006020828403121561391d5761391c612d76565b5b600061392b848285016138f2565b91505092915050565b60008083601f84011261394a57613949612f83565b5b8235905067ffffffffffffffff81111561396757613966613670565b5b6020830191508360018202830111156139835761398261302f565b5b9250929050565b600080600080606085870312156139a4576139a3612d76565b5b60006139b28782880161307d565b94505060206139c387828801612e86565b935050604085013567ffffffffffffffff8111156139e4576139e3612d7b565b5b6139f087828801613934565b925092505092959194509250565b613a0781613054565b82525050565b6000602082019050613a2260008301846139fe565b92915050565b613a3181613382565b82525050565b6000602082019050613a4c6000830184613a28565b92915050565b60008060408385031215613a6957613a68612d76565b5b6000613a778582860161307d565b9250506020613a8885828601612e86565b9150509250929050565b6000819050919050565b6000613ab7613ab2613aad84613034565b613a92565b613034565b9050919050565b6000613ac982613a9c565b9050919050565b6000613adb82613abe565b9050919050565b613aeb81613ad0565b82525050565b6000602082019050613b066000830184613ae2565b92915050565b7f476f7665726e6f723a206f6e6c79476f7665726e616e63650000000000000000600082015250565b6000613b42601883612ed3565b9150613b4d82613b0c565b602082019050919050565b60006020820190508181036000830152613b7181613b35565b9050919050565b7f4e487b7100000000000000000000000000000000000000000000000000000000600052602260045260246000fd5b60006002820490506001821680613bbf57607f821691505b60208210811415613bd357613bd2613b78565b5b50919050565b7f476f7665726e6f723a2070726f706f73616c206e6f742073756363657373667560008201527f6c00000000000000000000000000000000000000000000000000000000000000602082015250565b6000613c35602183612ed3565b9150613c4082613bd9565b604082019050919050565b60006020820190508181036000830152613c6481613c28565b9050919050565b600081519050613c7a81612e6f565b92915050565b600060208284031215613c9657613c95612d76565b5b6000613ca484828501613c6b565b91505092915050565b600081519050919050565b600082825260208201905092915050565b6000819050602082019050919050565b613ce281613054565b82525050565b6000613cf48383613cd9565b60208301905092915050565b6000602082019050919050565b6000613d1882613cad565b613d228185613cb8565b9350613d2d83613cc9565b8060005b83811015613d5e578151613d458882613ce8565b9750613d5083613d00565b925050600181019050613d31565b5085935050505092915050565b600081519050919050565b600082825260208201905092915050565b6000819050602082019050919050565b613da081612e3b565b82525050565b6000613db28383613d97565b60208301905092915050565b6000602082019050919050565b6000613dd682613d6b565b613de08185613d76565b9350613deb83613d87565b8060005b83811015613e1c578151613e038882613da6565b9750613e0e83613dbe565b925050600181019050613def565b5085935050505092915050565b600081519050919050565b600082825260208201905092915050565b6000819050602082019050919050565b600081519050919050565b600082825260208201905092915050565b6000613e7c82613e55565b613e868185613e60565b9350613e96818560208601612ee4565b613e9f81612f17565b840191505092915050565b6000613eb68383613e71565b905092915050565b6000602082019050919050565b6000613ed682613e29565b613ee08185613e34565b935083602082028501613ef285613e45565b8060005b85811015613f2e5784840389528151613f0f8582613eaa565b9450613f1a83613ebe565b925060208a01995050600181019050613ef6565b50829750879550505050505092915050565b6000819050919050565b60008160001b9050919050565b6000613f72613f6d613f6884613f40565b613f4a565b613382565b9050919050565b613f8281613f57565b82525050565b600060a0820190508181036000830152613fa28188613d0d565b90508181036020830152613fb68187613dcb565b90508181036040830152613fca8186613ecb565b9050613fd96060830185613f79565b613fe66080830184613a28565b9695505050505050565b600081519050613fff8161338c565b92915050565b60006020828403121561401b5761401a612d76565b5b600061402984828501613ff0565b91505092915050565b600060c082019050818103600083015261404c8189613d0d565b905081810360208301526140608188613dcb565b905081810360408301526140748187613ecb565b90506140836060830186613f79565b6140906080830185613a28565b61409d60a0830184612e45565b979650505050505050565b7f4e487b7100000000000000000000000000000000000000000000000000000000600052601160045260246000fd5b60006140e282612e3b565b91506140ed83612e3b565b9250827fffffffffffffffffffffffffffffffffffffffffffffffffffffffffffffffff03821115614122576141216140a8565b5b828201905092915050565b60006040820190506141426000830185612e45565b61414f6020830184612e45565b9392505050565b61415f81613473565b82525050565b600060608201905061417a6000830186613a28565b6141876020830185612e45565b6141946040830184614156565b949350505050565b600060808201905081810360008301526141b68187613d0d565b905081810360208301526141ca8186613dcb565b905081810360408301526141de8185613ecb565b90506141ed6060830184613a28565b95945050505050565b7f476f7665726e6f72566f74657351756f72756d4672616374696f6e3a2071756f60008201527f72756d4e756d657261746f72206f7665722071756f72756d44656e6f6d696e6160208201527f746f720000000000000000000000000000000000000000000000000000000000604082015250565b6000614278604383612ed3565b9150614283826141f6565b606082019050919050565b600060208201905081810360008301526142a78161426b565b9050919050565b7f476f7665726e6f723a20766f7465206e6f742063757272656e746c792061637460008201527f6976650000000000000000000000000000000000000000000000000000000000602082015250565b600061430a602383612ed3565b9150614315826142ae565b604082019050919050565b60006020820190508181036000830152614339816142fd565b9050919050565b60006080820190506143556000830187612e45565b6143626020830186614156565b61436f6040830185612e45565b81810360608301526143818184612f28565b905095945050505050565b61439581612e05565b81146143a057600080fd5b50565b6000815190506143b28161438c565b92915050565b6000602082840312156143ce576143cd612d76565b5b60006143dc848285016143a3565b91505092915050565b60006143f082612e3b565b91506143fb83612e3b565b92508282101561440e5761440d6140a8565b5b828203905092915050565b7f476f7665726e6f72436f6d7061746962696c697479427261766f3a2070726f7060008201527f6f73657220766f7465732062656c6f772070726f706f73616c2074687265736860208201527f6f6c640000000000000000000000000000000000000000000000000000000000604082015250565b600061449b604383612ed3565b91506144a682614419565b606082019050919050565b600060208201905081810360008301526144ca8161448e565b9050919050565b7f476f7665726e6f723a20696e76616c69642070726f706f73616c206c656e677460008201527f6800000000000000000000000000000000000000000000000000000000000000602082015250565b600061452d602183612ed3565b9150614538826144d1565b604082019050919050565b6000602082019050818103600083015261455c81614520565b9050919050565b7f476f7665726e6f723a20656d7074792070726f706f73616c0000000000000000600082015250565b6000614599601883612ed3565b91506145a482614563565b602082019050919050565b600060208201905081810360008301526145c88161458c565b9050919050565b7f476f7665726e6f723a2070726f706f73616c20616c726561647920657869737460008201527f7300000000000000000000000000000000000000000000000000000000000000602082015250565b600061462b602183612ed3565b9150614636826145cf565b604082019050919050565b6000602082019050818103600083015261465a8161461e565b9050919050565b600067ffffffffffffffff82169050919050565b600061468082614661565b915061468b83614661565b92508267ffffffffffffffff038211156146a8576146a76140a8565b5b828201905092915050565b600081519050919050565b600082825260208201905092915050565b6000819050602082019050919050565b600082825260208201905092915050565b60006146fb82612ec8565b61470581856146df565b9350614715818560208601612ee4565b61471e81612f17565b840191505092915050565b600061473583836146f0565b905092915050565b6000602082019050919050565b6000614755826146b3565b61475f81856146be565b935083602082028501614771856146cf565b8060005b858110156147ad578484038952815161478e8582614729565b94506147998361473d565b925060208a01995050600181019050614775565b50829750879550505050505092915050565b60006147da6147d56147d084614661565b613a92565b612e3b565b9050919050565b6147ea816147bf565b82525050565b600061012082019050614806600083018c612e45565b614813602083018b6139fe565b8181036040830152614825818a613d0d565b905081810360608301526148398189613dcb565b9050818103608083015261484d818861474a565b905081810360a08301526148618187613ecb565b905061487060c08301866147e1565b61487d60e08301856147e1565b8181036101008301526148908184612f28565b90509a9950505050505050505050565b60006040820190506148b560008301856139fe565b6148c260208301846139fe565b9392505050565b7f476f7665726e6f7253657474696e67733a20766f74696e6720706572696f642060008201527f746f6f206c6f7700000000000000000000000000000000000000000000000000602082015250565b6000614925602783612ed3565b9150614930826148c9565b604082019050919050565b6000602082019050818103600083015261495481614918565b9050919050565b600060408201905061497060008301856139fe565b61497d6020830184612e45565b9392505050565b600061498f82612e3b565b915061499a83612e3b565b9250817fffffffffffffffffffffffffffffffffffffffffffffffffffffffffffffffff04831182151516156149d3576149d26140a8565b5b828202905092915050565b7f4e487b7100000000000000000000000000000000000000000000000000000000600052601260045260246000fd5b6000614a1882612e3b565b9150614a2383612e3b565b925082614a3357614a326149de565b5b828204905092915050565b600081905092915050565b7f1901000000000000000000000000000000000000000000000000000000000000600082015250565b6000614a7f600283614a3e565b9150614a8a82614a49565b600282019050919050565b6000819050919050565b614ab0614aab82613382565b614a95565b82525050565b6000614ac182614a72565b9150614acd8285614a9f565b602082019150614add8284614a9f565b6020820191508190509392505050565b6000608082019050614b026000830187613a28565b614b0f6020830186614156565b614b1c6040830185613a28565b614b296060830184613a28565b95945050505050565b7f45434453413a20696e76616c6964207369676e61747572650000000000000000600082015250565b6000614b68601883612ed3565b9150614b7382614b32565b602082019050919050565b60006020820190508181036000830152614b9781614b5b565b9050919050565b7f45434453413a20696e76616c6964207369676e6174757265206c656e67746800600082015250565b6000614bd4601f83612ed3565b9150614bdf82614b9e565b602082019050919050565b60006020820190508181036000830152614c0381614bc7565b9050919050565b7f45434453413a20696e76616c6964207369676e6174757265202773272076616c60008201527f7565000000000000000000000000000000000000000000000000000000000000602082015250565b6000614c66602283612ed3565b9150614c7182614c0a565b604082019050919050565b60006020820190508181036000830152614c9581614c59565b9050919050565b7f45434453413a20696e76616c6964207369676e6174757265202776272076616c60008201527f7565000000000000000000000000000000000000000000000000000000000000602082015250565b6000614cf8602283612ed3565b9150614d0382614c9c565b604082019050919050565b60006020820190508181036000830152614d2781614ceb565b9050919050565b7f476f7665726e6f72566f74696e6753696d706c653a20766f746520616c72656160008201527f6479206361737400000000000000000000000000000000000000000000000000602082015250565b6000614d8a602783612ed3565b9150614d9582614d2e565b604082019050919050565b60006020820190508181036000830152614db981614d7d565b9050919050565b7f476f7665726e6f72566f74696e6753696d706c653a20696e76616c696420766160008201527f6c756520666f7220656e756d20566f7465547970650000000000000000000000602082015250565b6000614e1c603583612ed3565b9150614e2782614dc0565b604082019050919050565b60006020820190508181036000830152614e4b81614e0f565b9050919050565b7f476f7665726e6f723a20756e6b6e6f776e2070726f706f73616c206964000000600082015250565b6000614e88601d83612ed3565b9150614e9382614e52565b602082019050919050565b60006020820190508181036000830152614eb781614e7b565b9050919050565b7f53616665436173743a2076616c756520646f65736e27742066697420696e203660008201527f3420626974730000000000000000000000000000000000000000000000000000602082015250565b6000614f1a602683612ed3565b9150614f2582614ebe565b604082019050919050565b60006020820190508181036000830152614f4981614f0d565b9050919050565b7f416464726573733a20696e73756666696369656e742062616c616e636520666f60008201527f722063616c6c0000000000000000000000000000000000000000000000000000602082015250565b6000614fac602683612ed3565b9150614fb782614f50565b604082019050919050565b60006020820190508181036000830152614fdb81614f9f565b9050919050565b7f416464726573733a2063616c6c20746f206e6f6e2d636f6e7472616374000000600082015250565b6000615018601d83612ed3565b915061502382614fe2565b602082019050919050565b600060208201905081810360008301526150478161500b565b9050919050565b600081905092915050565b600061506482613e55565b61506e818561504e565b935061507e818560208601612ee4565b80840191505092915050565b60006150968284615059565b915081905092915050565b600060a0820190506150b66000830188613a28565b6150c36020830187613a28565b6150d06040830186613a28565b6150dd6060830185612e45565b6150ea60808301846139fe565b969550505050505056fe416464726573733a206c6f772d6c6576656c2063616c6c20776974682076616c7565206661696c6564a26469706673582212204b989f6121efb0eacc3910ed710e13684fade19d6a1557559a1ff33c8930c7d964736f6c63430008080033",
  "devdoc": {
    "kind": "dev",
    "methods": {
      "COUNTING_MODE()": {
        "details": "See {IGovernor-COUNTING_MODE}."
      },
      "castVote(uint256,uint8)": {
        "details": "See {IGovernor-castVote}."
      },
      "castVoteBySig(uint256,uint8,uint8,bytes32,bytes32)": {
        "details": "See {IGovernor-castVoteBySig}."
      },
      "castVoteWithReason(uint256,uint8,string)": {
        "details": "See {IGovernor-castVoteWithReason}."
      },
      "execute(address[],uint256[],bytes[],bytes32)": {
        "details": "See {IGovernor-execute}."
      },
      "hasVoted(uint256,address)": {
        "details": "See {IGovernor-hasVoted}."
      },
      "hashProposal(address[],uint256[],bytes[],bytes32)": {
        "details": "See {IGovernor-hashProposal}. The proposal id is produced by hashing the RLC encoded `targets` array, the `values` array, the `calldatas` array and the descriptionHash (bytes32 which itself is the keccak256 hash of the description string). This proposal id can be produced from the proposal data which is part of the {ProposalCreated} event. It can even be computed in advance, before the proposal is submitted. Note that the chainId and the governor address are not part of the proposal id computation. Consequently, the same proposal (with same operation and same description) will have the same id if submitted on multiple governors accross multiple networks. This also means that in order to execute the same operation twice (on the same governor) the proposer will have to change the description in order to avoid proposal id conflicts."
      },
      "name()": {
        "details": "See {IGovernor-name}."
      },
      "proposalDeadline(uint256)": {
        "details": "See {IGovernor-proposalDeadline}."
      },
      "proposalEta(uint256)": {
        "details": "Public accessor to check the eta of a queued proposal"
      },
      "proposalSnapshot(uint256)": {
        "details": "See {IGovernor-proposalSnapshot}."
      },
      "proposalVotes(uint256)": {
        "details": "Accessor to the internal vote counts."
      },
      "queue(address[],uint256[],bytes[],bytes32)": {
        "details": "Function to queue a proposal to the timelock."
      },
      "quorumDenominator()": {
        "details": "Returns the quorum denominator. Defaults to 100, but may be overridden."
      },
      "quorumNumerator()": {
        "details": "Returns the current quorum numerator. See {quorumDenominator}."
      },
      "relay(address,uint256,bytes)": {
        "details": "Relays a transaction or function call to an arbitrary target. In cases where the governance executor is some contract other than the governor itself, like when using a timelock, this function can be invoked in a governance proposal to recover tokens or Ether that was sent to the governor contract by mistake. Note that if the executor is simply the governor itself, use of `relay` is redundant."
      },
      "setProposalThreshold(uint256)": {
        "details": "Update the proposal threshold. This operation can only be performed through a governance proposal. Emits a {ProposalThresholdSet} event."
      },
      "setVotingDelay(uint256)": {
        "details": "Update the voting delay. This operation can only be performed through a governance proposal. Emits a {VotingDelaySet} event."
      },
      "setVotingPeriod(uint256)": {
        "details": "Update the voting period. This operation can only be performed through a governance proposal. Emits a {VotingPeriodSet} event."
      },
      "timelock()": {
        "details": "Public accessor to check the address of the timelock"
      },
      "updateQuorumNumerator(uint256)": {
        "details": "Changes the quorum numerator. Emits a {QuorumNumeratorUpdated} event. Requirements: - Must be called through a governance proposal. - New numerator must be smaller or equal to the denominator."
      },
      "updateTimelock(address)": {
        "details": "Public endpoint to update the underlying timelock instance. Restricted to the timelock itself, so updates must be proposed, scheduled, and executed through governance proposals. CAUTION: It is not recommended to change the timelock while there are other queued governance proposals."
      },
      "version()": {
        "details": "See {IGovernor-version}."
      }
    },
    "version": 1
  },
  "userdoc": {
    "kind": "user",
    "methods": {},
    "version": 1
  },
  "storageLayout": {
    "storage": [
      {
        "astId": 530,
        "contract": "contracts/governance_standard/GovernorContract.sol:GovernorContract",
        "label": "_name",
        "offset": 0,
        "slot": "0",
        "type": "t_string_storage"
      },
      {
        "astId": 535,
        "contract": "contracts/governance_standard/GovernorContract.sol:GovernorContract",
        "label": "_proposals",
        "offset": 0,
        "slot": "1",
        "type": "t_mapping(t_uint256,t_struct(ProposalCore)528_storage)"
      },
      {
        "astId": 2588,
        "contract": "contracts/governance_standard/GovernorContract.sol:GovernorContract",
        "label": "_votingDelay",
        "offset": 0,
        "slot": "2",
        "type": "t_uint256"
      },
      {
        "astId": 2590,
        "contract": "contracts/governance_standard/GovernorContract.sol:GovernorContract",
        "label": "_votingPeriod",
        "offset": 0,
        "slot": "3",
        "type": "t_uint256"
      },
      {
        "astId": 2592,
        "contract": "contracts/governance_standard/GovernorContract.sol:GovernorContract",
        "label": "_proposalThreshold",
        "offset": 0,
        "slot": "4",
        "type": "t_uint256"
      },
      {
        "astId": 2382,
        "contract": "contracts/governance_standard/GovernorContract.sol:GovernorContract",
        "label": "_proposalVotes",
        "offset": 0,
        "slot": "5",
        "type": "t_mapping(t_uint256,t_struct(ProposalVote)2377_storage)"
      },
      {
        "astId": 3183,
        "contract": "contracts/governance_standard/GovernorContract.sol:GovernorContract",
        "label": "_quorumNumerator",
        "offset": 0,
        "slot": "6",
        "type": "t_uint256"
      },
      {
        "astId": 2771,
        "contract": "contracts/governance_standard/GovernorContract.sol:GovernorContract",
        "label": "_timelock",
        "offset": 0,
        "slot": "7",
        "type": "t_contract(TimelockController)2356"
      },
      {
        "astId": 2775,
        "contract": "contracts/governance_standard/GovernorContract.sol:GovernorContract",
        "label": "_timelockIds",
        "offset": 0,
        "slot": "8",
        "type": "t_mapping(t_uint256,t_bytes32)"
      }
    ],
    "types": {
      "t_address": {
        "encoding": "inplace",
        "label": "address",
        "numberOfBytes": "20"
      },
      "t_bool": {
        "encoding": "inplace",
        "label": "bool",
        "numberOfBytes": "1"
      },
      "t_bytes32": {
        "encoding": "inplace",
        "label": "bytes32",
        "numberOfBytes": "32"
      },
      "t_contract(TimelockController)2356": {
        "encoding": "inplace",
        "label": "contract TimelockController",
        "numberOfBytes": "20"
      },
      "t_mapping(t_address,t_bool)": {
        "encoding": "mapping",
        "key": "t_address",
        "label": "mapping(address => bool)",
        "numberOfBytes": "32",
        "value": "t_bool"
      },
      "t_mapping(t_uint256,t_bytes32)": {
        "encoding": "mapping",
        "key": "t_uint256",
        "label": "mapping(uint256 => bytes32)",
        "numberOfBytes": "32",
        "value": "t_bytes32"
      },
      "t_mapping(t_uint256,t_struct(ProposalCore)528_storage)": {
        "encoding": "mapping",
        "key": "t_uint256",
        "label": "mapping(uint256 => struct Governor.ProposalCore)",
        "numberOfBytes": "32",
        "value": "t_struct(ProposalCore)528_storage"
      },
      "t_mapping(t_uint256,t_struct(ProposalVote)2377_storage)": {
        "encoding": "mapping",
        "key": "t_uint256",
        "label": "mapping(uint256 => struct GovernorCountingSimple.ProposalVote)",
        "numberOfBytes": "32",
        "value": "t_struct(ProposalVote)2377_storage"
      },
      "t_string_storage": {
        "encoding": "bytes",
        "label": "string",
        "numberOfBytes": "32"
      },
      "t_struct(BlockNumber)5639_storage": {
        "encoding": "inplace",
        "label": "struct Timers.BlockNumber",
        "members": [
          {
            "astId": 5638,
            "contract": "contracts/governance_standard/GovernorContract.sol:GovernorContract",
            "label": "_deadline",
            "offset": 0,
            "slot": "0",
            "type": "t_uint64"
          }
        ],
        "numberOfBytes": "32"
      },
      "t_struct(ProposalCore)528_storage": {
        "encoding": "inplace",
        "label": "struct Governor.ProposalCore",
        "members": [
          {
            "astId": 520,
            "contract": "contracts/governance_standard/GovernorContract.sol:GovernorContract",
            "label": "voteStart",
            "offset": 0,
            "slot": "0",
            "type": "t_struct(BlockNumber)5639_storage"
          },
          {
            "astId": 523,
            "contract": "contracts/governance_standard/GovernorContract.sol:GovernorContract",
            "label": "voteEnd",
            "offset": 0,
            "slot": "1",
            "type": "t_struct(BlockNumber)5639_storage"
          },
          {
            "astId": 525,
            "contract": "contracts/governance_standard/GovernorContract.sol:GovernorContract",
            "label": "executed",
            "offset": 0,
            "slot": "2",
            "type": "t_bool"
          },
          {
            "astId": 527,
            "contract": "contracts/governance_standard/GovernorContract.sol:GovernorContract",
            "label": "canceled",
            "offset": 1,
            "slot": "2",
            "type": "t_bool"
          }
        ],
        "numberOfBytes": "96"
      },
      "t_struct(ProposalVote)2377_storage": {
        "encoding": "inplace",
        "label": "struct GovernorCountingSimple.ProposalVote",
        "members": [
          {
            "astId": 2368,
            "contract": "contracts/governance_standard/GovernorContract.sol:GovernorContract",
            "label": "againstVotes",
            "offset": 0,
            "slot": "0",
            "type": "t_uint256"
          },
          {
            "astId": 2370,
            "contract": "contracts/governance_standard/GovernorContract.sol:GovernorContract",
            "label": "forVotes",
            "offset": 0,
            "slot": "1",
            "type": "t_uint256"
          },
          {
            "astId": 2372,
            "contract": "contracts/governance_standard/GovernorContract.sol:GovernorContract",
            "label": "abstainVotes",
            "offset": 0,
            "slot": "2",
            "type": "t_uint256"
          },
          {
            "astId": 2376,
            "contract": "contracts/governance_standard/GovernorContract.sol:GovernorContract",
            "label": "hasVoted",
            "offset": 0,
            "slot": "3",
            "type": "t_mapping(t_address,t_bool)"
          }
        ],
        "numberOfBytes": "128"
      },
      "t_uint256": {
        "encoding": "inplace",
        "label": "uint256",
        "numberOfBytes": "32"
      },
      "t_uint64": {
        "encoding": "inplace",
        "label": "uint64",
        "numberOfBytes": "8"
      }
    }
  }
}