{
  "address": "0x5FbDB2315678afecb367f032d93F642f64180aa3",
  "abi": [
    {
      "inputs": [],
      "stateMutability": "nonpayable",
      "type": "constructor"
    },
    {
      "anonymous": false,
      "inputs": [
        {
          "indexed": true,
          "internalType": "address",
          "name": "owner",
          "type": "address"
        },
        {
          "indexed": true,
          "internalType": "address",
          "name": "spender",
          "type": "address"
        },
        {
          "indexed": false,
          "internalType": "uint256",
          "name": "value",
          "type": "uint256"
        }
      ],
      "name": "Approval",
      "type": "event"
    },
    {
      "anonymous": false,
      "inputs": [
        {
          "indexed": true,
          "internalType": "address",
          "name": "delegator",
          "type": "address"
        },
        {
          "indexed": true,
          "internalType": "address",
          "name": "fromDelegate",
          "type": "address"
        },
        {
          "indexed": true,
          "internalType": "address",
          "name": "toDelegate",
          "type": "address"
        }
      ],
      "name": "DelegateChanged",
      "type": "event"
    },
    {
      "anonymous": false,
      "inputs": [
        {
          "indexed": true,
          "internalType": "address",
          "name": "delegate",
          "type": "address"
        },
        {
          "indexed": false,
          "internalType": "uint256",
          "name": "previousBalance",
          "type": "uint256"
        },
        {
          "indexed": false,
          "internalType": "uint256",
          "name": "newBalance",
          "type": "uint256"
        }
      ],
      "name": "DelegateVotesChanged",
      "type": "event"
    },
    {
      "anonymous": false,
      "inputs": [
        {
          "indexed": true,
          "internalType": "address",
          "name": "from",
          "type": "address"
        },
        {
          "indexed": true,
          "internalType": "address",
          "name": "to",
          "type": "address"
        },
        {
          "indexed": false,
          "internalType": "uint256",
          "name": "value",
          "type": "uint256"
        }
      ],
      "name": "Transfer",
      "type": "event"
    },
    {
      "inputs": [],
      "name": "DOMAIN_SEPARATOR",
      "outputs": [
        {
          "internalType": "bytes32",
          "name": "",
          "type": "bytes32"
        }
      ],
      "stateMutability": "view",
      "type": "function"
    },
    {
      "inputs": [
        {
          "internalType": "address",
          "name": "owner",
          "type": "address"
        },
        {
          "internalType": "address",
          "name": "spender",
          "type": "address"
        }
      ],
      "name": "allowance",
      "outputs": [
        {
          "internalType": "uint256",
          "name": "",
          "type": "uint256"
        }
      ],
      "stateMutability": "view",
      "type": "function"
    },
    {
      "inputs": [
        {
          "internalType": "address",
          "name": "spender",
          "type": "address"
        },
        {
          "internalType": "uint256",
          "name": "amount",
          "type": "uint256"
        }
      ],
      "name": "approve",
      "outputs": [
        {
          "internalType": "bool",
          "name": "",
          "type": "bool"
        }
      ],
      "stateMutability": "nonpayable",
      "type": "function"
    },
    {
      "inputs": [
        {
          "internalType": "address",
          "name": "account",
          "type": "address"
        }
      ],
      "name": "balanceOf",
      "outputs": [
        {
          "internalType": "uint256",
          "name": "",
          "type": "uint256"
        }
      ],
      "stateMutability": "view",
      "type": "function"
    },
    {
      "inputs": [
        {
          "internalType": "address",
          "name": "account",
          "type": "address"
        },
        {
          "internalType": "uint32",
          "name": "pos",
          "type": "uint32"
        }
      ],
      "name": "checkpoints",
      "outputs": [
        {
          "components": [
            {
              "internalType": "uint32",
              "name": "fromBlock",
              "type": "uint32"
            },
            {
              "internalType": "uint224",
              "name": "votes",
              "type": "uint224"
            }
          ],
          "internalType": "struct ERC20Votes.Checkpoint",
          "name": "",
          "type": "tuple"
        }
      ],
      "stateMutability": "view",
      "type": "function"
    },
    {
      "inputs": [],
      "name": "decimals",
      "outputs": [
        {
          "internalType": "uint8",
          "name": "",
          "type": "uint8"
        }
      ],
      "stateMutability": "view",
      "type": "function"
    },
    {
      "inputs": [
        {
          "internalType": "address",
          "name": "spender",
          "type": "address"
        },
        {
          "internalType": "uint256",
          "name": "subtractedValue",
          "type": "uint256"
        }
      ],
      "name": "decreaseAllowance",
      "outputs": [
        {
          "internalType": "bool",
          "name": "",
          "type": "bool"
        }
      ],
      "stateMutability": "nonpayable",
      "type": "function"
    },
    {
      "inputs": [
        {
          "internalType": "address",
          "name": "delegatee",
          "type": "address"
        }
      ],
      "name": "delegate",
      "outputs": [],
      "stateMutability": "nonpayable",
      "type": "function"
    },
    {
      "inputs": [
        {
          "internalType": "address",
          "name": "delegatee",
          "type": "address"
        },
        {
          "internalType": "uint256",
          "name": "nonce",
          "type": "uint256"
        },
        {
          "internalType": "uint256",
          "name": "expiry",
          "type": "uint256"
        },
        {
          "internalType": "uint8",
          "name": "v",
          "type": "uint8"
        },
        {
          "internalType": "bytes32",
          "name": "r",
          "type": "bytes32"
        },
        {
          "internalType": "bytes32",
          "name": "s",
          "type": "bytes32"
        }
      ],
      "name": "delegateBySig",
      "outputs": [],
      "stateMutability": "nonpayable",
      "type": "function"
    },
    {
      "inputs": [
        {
          "internalType": "address",
          "name": "account",
          "type": "address"
        }
      ],
      "name": "delegates",
      "outputs": [
        {
          "internalType": "address",
          "name": "",
          "type": "address"
        }
      ],
      "stateMutability": "view",
      "type": "function"
    },
    {
      "inputs": [
        {
          "internalType": "uint256",
          "name": "blockNumber",
          "type": "uint256"
        }
      ],
      "name": "getPastTotalSupply",
      "outputs": [
        {
          "internalType": "uint256",
          "name": "",
          "type": "uint256"
        }
      ],
      "stateMutability": "view",
      "type": "function"
    },
    {
      "inputs": [
        {
          "internalType": "address",
          "name": "account",
          "type": "address"
        },
        {
          "internalType": "uint256",
          "name": "blockNumber",
          "type": "uint256"
        }
      ],
      "name": "getPastVotes",
      "outputs": [
        {
          "internalType": "uint256",
          "name": "",
          "type": "uint256"
        }
      ],
      "stateMutability": "view",
      "type": "function"
    },
    {
      "inputs": [
        {
          "internalType": "address",
          "name": "account",
          "type": "address"
        }
      ],
      "name": "getVotes",
      "outputs": [
        {
          "internalType": "uint256",
          "name": "",
          "type": "uint256"
        }
      ],
      "stateMutability": "view",
      "type": "function"
    },
    {
      "inputs": [
        {
          "internalType": "address",
          "name": "spender",
          "type": "address"
        },
        {
          "internalType": "uint256",
          "name": "addedValue",
          "type": "uint256"
        }
      ],
      "name": "increaseAllowance",
      "outputs": [
        {
          "internalType": "bool",
          "name": "",
          "type": "bool"
        }
      ],
      "stateMutability": "nonpayable",
      "type": "function"
    },
    {
      "inputs": [],
      "name": "name",
      "outputs": [
        {
          "internalType": "string",
          "name": "",
          "type": "string"
        }
      ],
      "stateMutability": "view",
      "type": "function"
    },
    {
      "inputs": [
        {
          "internalType": "address",
          "name": "owner",
          "type": "address"
        }
      ],
      "name": "nonces",
      "outputs": [
        {
          "internalType": "uint256",
          "name": "",
          "type": "uint256"
        }
      ],
      "stateMutability": "view",
      "type": "function"
    },
    {
      "inputs": [
        {
          "internalType": "address",
          "name": "account",
          "type": "address"
        }
      ],
      "name": "numCheckpoints",
      "outputs": [
        {
          "internalType": "uint32",
          "name": "",
          "type": "uint32"
        }
      ],
      "stateMutability": "view",
      "type": "function"
    },
    {
      "inputs": [
        {
          "internalType": "address",
          "name": "owner",
          "type": "address"
        },
        {
          "internalType": "address",
          "name": "spender",
          "type": "address"
        },
        {
          "internalType": "uint256",
          "name": "value",
          "type": "uint256"
        },
        {
          "internalType": "uint256",
          "name": "deadline",
          "type": "uint256"
        },
        {
          "internalType": "uint8",
          "name": "v",
          "type": "uint8"
        },
        {
          "internalType": "bytes32",
          "name": "r",
          "type": "bytes32"
        },
        {
          "internalType": "bytes32",
          "name": "s",
          "type": "bytes32"
        }
      ],
      "name": "permit",
      "outputs": [],
      "stateMutability": "nonpayable",
      "type": "function"
    },
    {
      "inputs": [],
      "name": "s_maxSupply",
      "outputs": [
        {
          "internalType": "uint256",
          "name": "",
          "type": "uint256"
        }
      ],
      "stateMutability": "view",
      "type": "function"
    },
    {
      "inputs": [],
      "name": "symbol",
      "outputs": [
        {
          "internalType": "string",
          "name": "",
          "type": "string"
        }
      ],
      "stateMutability": "view",
      "type": "function"
    },
    {
      "inputs": [],
      "name": "totalSupply",
      "outputs": [
        {
          "internalType": "uint256",
          "name": "",
          "type": "uint256"
        }
      ],
      "stateMutability": "view",
      "type": "function"
    },
    {
      "inputs": [
        {
          "internalType": "address",
          "name": "to",
          "type": "address"
        },
        {
          "internalType": "uint256",
          "name": "amount",
          "type": "uint256"
        }
      ],
      "name": "transfer",
      "outputs": [
        {
          "internalType": "bool",
          "name": "",
          "type": "bool"
        }
      ],
      "stateMutability": "nonpayable",
      "type": "function"
    },
    {
      "inputs": [
        {
          "internalType": "address",
          "name": "from",
          "type": "address"
        },
        {
          "internalType": "address",
          "name": "to",
          "type": "address"
        },
        {
          "internalType": "uint256",
          "name": "amount",
          "type": "uint256"
        }
      ],
      "name": "transferFrom",
      "outputs": [
        {
          "internalType": "bool",
          "name": "",
          "type": "bool"
        }
      ],
      "stateMutability": "nonpayable",
      "type": "function"
    }
  ],
  "transactionHash": "0xc2211d7d8bb57fbec2f5edd18c378a3c261f8783185ef06347931963dac218bc",
  "args": [],
  "numDeployments": 1,
  "solcInputHash": "b08991c19a46be2e22bf928e8f70b86d",
  "bytecode": "0x6101606040527f6e71edae12b1b97f4d1f60370fef10105fa2faae0126114a169c64845d6126c96101409081525069d3c21bcecceda10000006009553480156200004857600080fd5b506040518060400160405280600f81526020017f476f7665726e616e6365546f6b656e0000000000000000000000000000000000815250806040518060400160405280600181526020017f31000000000000000000000000000000000000000000000000000000000000008152506040518060400160405280600f81526020017f476f7665726e616e6365546f6b656e00000000000000000000000000000000008152506040518060400160405280600281526020017f475400000000000000000000000000000000000000000000000000000000000081525081600390805190602001906200013a92919062000b8a565b5080600490805190602001906200015392919062000b8a565b50505060008280519060200120905060008280519060200120905060007f8b73c3c69bb8fe3d512ecc4cf759cc79239f7b179b0ffacaa9a75d522b39400f90508260e081815250508161010081815250504660a08181525050620001bf8184846200022660201b60201c565b608081815250503073ffffffffffffffffffffffffffffffffffffffff1660c08173ffffffffffffffffffffffffffffffffffffffff1660601b8152505080610120818152505050505050505062000220336009546200026260201b60201c565b62001102565b600083838346306040516020016200024395949392919062000cb5565b6040516020818303038152906040528051906020012090509392505050565b6200027982826200027d60201b62000f901760201c565b5050565b6200029482826200033b60201b6200101d1760201c565b620002a4620004b460201b60201c565b7bffffffffffffffffffffffffffffffffffffffffffffffffffffffff16620002d2620004d860201b60201c565b111562000316576040517f08c379a00000000000000000000000000000000000000000000000000000000081526004016200030d9062000d99565b60405180910390fd5b620003356008620004e260201b6200117d1783620004fa60201b60201c565b50505050565b600073ffffffffffffffffffffffffffffffffffffffff168273ffffffffffffffffffffffffffffffffffffffff161415620003ae576040517f08c379a0000000000000000000000000000000000000000000000000000000008152600401620003a59062000e0b565b60405180910390fd5b620003c260008383620007ab60201b60201c565b8060026000828254620003d6919062000e5c565b92505081905550806000808473ffffffffffffffffffffffffffffffffffffffff1673ffffffffffffffffffffffffffffffffffffffff16815260200190815260200160002060008282546200042d919062000e5c565b925050819055508173ffffffffffffffffffffffffffffffffffffffff16600073ffffffffffffffffffffffffffffffffffffffff167fddf252ad1be2c89b69c2b068fc378daa952ba7f163c4a11628f55a4df523b3ef8360405162000494919062000eb9565b60405180910390a3620004b060008383620007b060201b60201c565b5050565b60007bffffffffffffffffffffffffffffffffffffffffffffffffffffffff905090565b6000600254905090565b60008183620004f2919062000e5c565b905092915050565b600080600085805490509050600081146200056f57856001826200051f919062000ed6565b8154811062000533576200053262000f11565b5b9060005260206000200160000160049054906101000a90047bffffffffffffffffffffffffffffffffffffffffffffffffffffffff1662000572565b60005b7bffffffffffffffffffffffffffffffffffffffffffffffffffffffff1692506200059e83858760201c565b9150600081118015620005f757504386600183620005bd919062000ed6565b81548110620005d157620005d062000f11565b5b9060005260206000200160000160009054906101000a900463ffffffff1663ffffffff16145b1562000698576200061382620007cd60201b620011931760201c565b8660018362000623919062000ed6565b8154811062000637576200063662000f11565b5b9060005260206000200160000160046101000a8154817bffffffffffffffffffffffffffffffffffffffffffffffffffffffff02191690837bffffffffffffffffffffffffffffffffffffffffffffffffffffffff160217905550620007a2565b856040518060400160405280620006ba436200083b60201b620011fe1760201c565b63ffffffff168152602001620006db85620007cd60201b620011931760201c565b7bffffffffffffffffffffffffffffffffffffffffffffffffffffffff168152509080600181540180825580915050600190039060005260206000200160009091909190915060008201518160000160006101000a81548163ffffffff021916908363ffffffff16021790555060208201518160000160046101000a8154817bffffffffffffffffffffffffffffffffffffffffffffffffffffffff02191690837bffffffffffffffffffffffffffffffffffffffffffffffffffffffff16021790555050505b50935093915050565b505050565b620007c88383836200089160201b620012511760201c565b505050565b60007bffffffffffffffffffffffffffffffffffffffffffffffffffffffff801682111562000833576040517f08c379a00000000000000000000000000000000000000000000000000000000081526004016200082a9062000fb6565b60405180910390fd5b819050919050565b600063ffffffff801682111562000889576040517f08c379a000000000000000000000000000000000000000000000000000000000815260040162000880906200104e565b60405180910390fd5b819050919050565b620008a9838383620008e160201b6200127c1760201c565b620008dc620008be84620008e660201b60201c565b620008cf84620008e660201b60201c565b836200094f60201b60201c565b505050565b505050565b6000600660008373ffffffffffffffffffffffffffffffffffffffff1673ffffffffffffffffffffffffffffffffffffffff16815260200190815260200160002060009054906101000a900473ffffffffffffffffffffffffffffffffffffffff169050919050565b8173ffffffffffffffffffffffffffffffffffffffff168373ffffffffffffffffffffffffffffffffffffffff16141580156200098c5750600081115b1562000b6d57600073ffffffffffffffffffffffffffffffffffffffff168373ffffffffffffffffffffffffffffffffffffffff161462000a7f5760008062000a26600760008773ffffffffffffffffffffffffffffffffffffffff1673ffffffffffffffffffffffffffffffffffffffff16815260200190815260200160002062000b7260201b620012811785620004fa60201b60201c565b915091508473ffffffffffffffffffffffffffffffffffffffff167fdec2bacdd2f05b59de34da9b523dff8be42e5e38e818c82fdb0bae774387a724838360405162000a7492919062001070565b60405180910390a250505b600073ffffffffffffffffffffffffffffffffffffffff168273ffffffffffffffffffffffffffffffffffffffff161462000b6c5760008062000b13600760008673ffffffffffffffffffffffffffffffffffffffff1673ffffffffffffffffffffffffffffffffffffffff168152602001908152602001600020620004e260201b6200117d1785620004fa60201b60201c565b915091508373ffffffffffffffffffffffffffffffffffffffff167fdec2bacdd2f05b59de34da9b523dff8be42e5e38e818c82fdb0bae774387a724838360405162000b6192919062001070565b60405180910390a250505b5b505050565b6000818362000b82919062000ed6565b905092915050565b82805462000b9890620010cc565b90600052602060002090601f01602090048101928262000bbc576000855562000c08565b82601f1062000bd757805160ff191683800117855562000c08565b8280016001018555821562000c08579182015b8281111562000c0757825182559160200191906001019062000bea565b5b50905062000c17919062000c1b565b5090565b5b8082111562000c3657600081600090555060010162000c1c565b5090565b6000819050919050565b62000c4f8162000c3a565b82525050565b6000819050919050565b62000c6a8162000c55565b82525050565b600073ffffffffffffffffffffffffffffffffffffffff82169050919050565b600062000c9d8262000c70565b9050919050565b62000caf8162000c90565b82525050565b600060a08201905062000ccc600083018862000c44565b62000cdb602083018762000c44565b62000cea604083018662000c44565b62000cf9606083018562000c5f565b62000d08608083018462000ca4565b9695505050505050565b600082825260208201905092915050565b7f4552433230566f7465733a20746f74616c20737570706c79207269736b73206f60008201527f766572666c6f77696e6720766f74657300000000000000000000000000000000602082015250565b600062000d8160308362000d12565b915062000d8e8262000d23565b604082019050919050565b6000602082019050818103600083015262000db48162000d72565b9050919050565b7f45524332303a206d696e7420746f20746865207a65726f206164647265737300600082015250565b600062000df3601f8362000d12565b915062000e008262000dbb565b602082019050919050565b6000602082019050818103600083015262000e268162000de4565b9050919050565b7f4e487b7100000000000000000000000000000000000000000000000000000000600052601160045260246000fd5b600062000e698262000c55565b915062000e768362000c55565b9250827fffffffffffffffffffffffffffffffffffffffffffffffffffffffffffffffff0382111562000eae5762000ead62000e2d565b5b828201905092915050565b600060208201905062000ed0600083018462000c5f565b92915050565b600062000ee38262000c55565b915062000ef08362000c55565b92508282101562000f065762000f0562000e2d565b5b828203905092915050565b7f4e487b7100000000000000000000000000000000000000000000000000000000600052603260045260246000fd5b7f53616665436173743a2076616c756520646f65736e27742066697420696e203260008201527f3234206269747300000000000000000000000000000000000000000000000000602082015250565b600062000f9e60278362000d12565b915062000fab8262000f40565b604082019050919050565b6000602082019050818103600083015262000fd18162000f8f565b9050919050565b7f53616665436173743a2076616c756520646f65736e27742066697420696e203360008201527f3220626974730000000000000000000000000000000000000000000000000000602082015250565b60006200103660268362000d12565b9150620010438262000fd8565b604082019050919050565b60006020820190508181036000830152620010698162001027565b9050919050565b600060408201905062001087600083018562000c5f565b62001096602083018462000c5f565b9392505050565b7f4e487b7100000000000000000000000000000000000000000000000000000000600052602260045260246000fd5b60006002820490506001821680620010e557607f821691505b60208210811415620010fc57620010fb6200109d565b5b50919050565b60805160a05160c05160601c60e051610100516101205161014051613844620011606000396000610cfe0152600061182501526000611867015260006118460152600061177b015260006117d1015260006117fa01526138446000f3fe608060405234801561001057600080fd5b506004361061014d5760003560e01c80636fcfff45116100c3578063a457c2d71161007c578063a457c2d714610402578063a9059cbb14610432578063c3cda52014610462578063d505accf1461047e578063dd62ed3e1461049a578063f1127ed8146104ca5761014d565b80636fcfff45146102f457806370a08231146103245780637ecebe00146103545780638e539e8c1461038457806395d89b41146103b45780639ab24eb0146103d25761014d565b80633644e515116101155780633644e5151461020c578063395093511461022a5780633a46b1a81461025a578063587cde1e1461028a5780635c19a95c146102ba5780635d641847146102d65761014d565b806306fdde0314610152578063095ea7b31461017057806318160ddd146101a057806323b872dd146101be578063313ce567146101ee575b600080fd5b61015a6104fa565b6040516101679190612474565b60405180910390f35b61018a6004803603810190610185919061252f565b61058c565b604051610197919061258a565b60405180910390f35b6101a86105af565b6040516101b591906125b4565b60405180910390f35b6101d860048036038101906101d391906125cf565b6105b9565b6040516101e5919061258a565b60405180910390f35b6101f66105e8565b604051610203919061263e565b60405180910390f35b6102146105f1565b6040516102219190612672565b60405180910390f35b610244600480360381019061023f919061252f565b610600565b604051610251919061258a565b60405180910390f35b610274600480360381019061026f919061252f565b6106aa565b60405161028191906125b4565b60405180910390f35b6102a4600480360381019061029f919061268d565b61073e565b6040516102b191906126c9565b60405180910390f35b6102d460048036038101906102cf919061268d565b6107a7565b005b6102de6107bb565b6040516102eb91906125b4565b60405180910390f35b61030e6004803603810190610309919061268d565b6107c1565b60405161031b9190612703565b60405180910390f35b61033e6004803603810190610339919061268d565b610815565b60405161034b91906125b4565b60405180910390f35b61036e6004803603810190610369919061268d565b61085d565b60405161037b91906125b4565b60405180910390f35b61039e6004803603810190610399919061271e565b6108ad565b6040516103ab91906125b4565b60405180910390f35b6103bc610903565b6040516103c99190612474565b60405180910390f35b6103ec60048036038101906103e7919061268d565b610995565b6040516103f991906125b4565b60405180910390f35b61041c6004803603810190610417919061252f565b610aa6565b604051610429919061258a565b60405180910390f35b61044c6004803603810190610447919061252f565b610b90565b604051610459919061258a565b60405180910390f35b61047c600480360381019061047791906127a3565b610bb3565b005b61049860048036038101906104939190612830565b610cb7565b005b6104b460048036038101906104af91906128d2565b610df9565b6040516104c191906125b4565b60405180910390f35b6104e460048036038101906104df919061293e565b610e80565b6040516104f191906129f3565b60405180910390f35b60606003805461050990612a3d565b80601f016020809104026020016040519081016040528092919081815260200182805461053590612a3d565b80156105825780601f1061055757610100808354040283529160200191610582565b820191906000526020600020905b81548152906001019060200180831161056557829003601f168201915b5050505050905090565b600080610597611297565b90506105a481858561129f565b600191505092915050565b6000600254905090565b6000806105c4611297565b90506105d185828561146a565b6105dc8585856114f6565b60019150509392505050565b60006012905090565b60006105fb611777565b905090565b60008061060b611297565b905061069f818585600160008673ffffffffffffffffffffffffffffffffffffffff1673ffffffffffffffffffffffffffffffffffffffff16815260200190815260200160002060008973ffffffffffffffffffffffffffffffffffffffff1673ffffffffffffffffffffffffffffffffffffffff1681526020019081526020016000205461069a9190612a9e565b61129f565b600191505092915050565b60004382106106ee576040517f08c379a00000000000000000000000000000000000000000000000000000000081526004016106e590612b40565b60405180910390fd5b610736600760008573ffffffffffffffffffffffffffffffffffffffff1673ffffffffffffffffffffffffffffffffffffffff16815260200190815260200160002083611891565b905092915050565b6000600660008373ffffffffffffffffffffffffffffffffffffffff1673ffffffffffffffffffffffffffffffffffffffff16815260200190815260200160002060009054906101000a900473ffffffffffffffffffffffffffffffffffffffff169050919050565b6107b86107b2611297565b8261199d565b50565b60095481565b600061080e600760008473ffffffffffffffffffffffffffffffffffffffff1673ffffffffffffffffffffffffffffffffffffffff168152602001908152602001600020805490506111fe565b9050919050565b60008060008373ffffffffffffffffffffffffffffffffffffffff1673ffffffffffffffffffffffffffffffffffffffff168152602001908152602001600020549050919050565b60006108a6600560008473ffffffffffffffffffffffffffffffffffffffff1673ffffffffffffffffffffffffffffffffffffffff168152602001908152602001600020611ab7565b9050919050565b60004382106108f1576040517f08c379a00000000000000000000000000000000000000000000000000000000081526004016108e890612b40565b60405180910390fd5b6108fc600883611891565b9050919050565b60606004805461091290612a3d565b80601f016020809104026020016040519081016040528092919081815260200182805461093e90612a3d565b801561098b5780601f106109605761010080835404028352916020019161098b565b820191906000526020600020905b81548152906001019060200180831161096e57829003601f168201915b5050505050905090565b600080600760008473ffffffffffffffffffffffffffffffffffffffff1673ffffffffffffffffffffffffffffffffffffffff16815260200190815260200160002080549050905060008114610a7d57600760008473ffffffffffffffffffffffffffffffffffffffff1673ffffffffffffffffffffffffffffffffffffffff168152602001908152602001600020600182610a319190612b60565b81548110610a4257610a41612b94565b5b9060005260206000200160000160049054906101000a90047bffffffffffffffffffffffffffffffffffffffffffffffffffffffff16610a80565b60005b7bffffffffffffffffffffffffffffffffffffffffffffffffffffffff16915050919050565b600080610ab1611297565b90506000600160008373ffffffffffffffffffffffffffffffffffffffff1673ffffffffffffffffffffffffffffffffffffffff16815260200190815260200160002060008673ffffffffffffffffffffffffffffffffffffffff1673ffffffffffffffffffffffffffffffffffffffff16815260200190815260200160002054905083811015610b77576040517f08c379a0000000000000000000000000000000000000000000000000000000008152600401610b6e90612c35565b60405180910390fd5b610b84828686840361129f565b60019250505092915050565b600080610b9b611297565b9050610ba88185856114f6565b600191505092915050565b83421115610bf6576040517f08c379a0000000000000000000000000000000000000000000000000000000008152600401610bed90612ca1565b60405180910390fd5b6000610c58610c507fe48329057bfd03d55e49b547132e39cffd9c1820ad7b9d4c5307691425d15adf898989604051602001610c359493929190612cc1565b60405160208183030381529060405280519060200120611ac5565b858585611adf565b9050610c6381611b0a565b8614610ca4576040517f08c379a0000000000000000000000000000000000000000000000000000000008152600401610c9b90612d52565b60405180910390fd5b610cae818861199d565b50505050505050565b83421115610cfa576040517f08c379a0000000000000000000000000000000000000000000000000000000008152600401610cf190612dbe565b60405180910390fd5b60007f0000000000000000000000000000000000000000000000000000000000000000888888610d298c611b0a565b89604051602001610d3f96959493929190612dde565b6040516020818303038152906040528051906020012090506000610d6282611ac5565b90506000610d7282878787611adf565b90508973ffffffffffffffffffffffffffffffffffffffff168173ffffffffffffffffffffffffffffffffffffffff1614610de2576040517f08c379a0000000000000000000000000000000000000000000000000000000008152600401610dd990612e8b565b60405180910390fd5b610ded8a8a8a61129f565b50505050505050505050565b6000600160008473ffffffffffffffffffffffffffffffffffffffff1673ffffffffffffffffffffffffffffffffffffffff16815260200190815260200160002060008373ffffffffffffffffffffffffffffffffffffffff1673ffffffffffffffffffffffffffffffffffffffff16815260200190815260200160002054905092915050565b610e8861239d565b600760008473ffffffffffffffffffffffffffffffffffffffff1673ffffffffffffffffffffffffffffffffffffffff1681526020019081526020016000208263ffffffff1681548110610edf57610ede612b94565b5b906000526020600020016040518060400160405290816000820160009054906101000a900463ffffffff1663ffffffff1663ffffffff1681526020016000820160049054906101000a90047bffffffffffffffffffffffffffffffffffffffffffffffffffffffff167bffffffffffffffffffffffffffffffffffffffffffffffffffffffff167bffffffffffffffffffffffffffffffffffffffffffffffffffffffff1681525050905092915050565b610f9a828261101d565b610fa2611b68565b7bffffffffffffffffffffffffffffffffffffffffffffffffffffffff16610fc86105af565b1115611009576040517f08c379a000000000000000000000000000000000000000000000000000000000815260040161100090612f1d565b60405180910390fd5b611017600861117d83611b8c565b50505050565b600073ffffffffffffffffffffffffffffffffffffffff168273ffffffffffffffffffffffffffffffffffffffff16141561108d576040517f08c379a000000000000000000000000000000000000000000000000000000000815260040161108490612f89565b60405180910390fd5b61109960008383611e04565b80600260008282546110ab9190612a9e565b92505081905550806000808473ffffffffffffffffffffffffffffffffffffffff1673ffffffffffffffffffffffffffffffffffffffff16815260200190815260200160002060008282546111009190612a9e565b925050819055508173ffffffffffffffffffffffffffffffffffffffff16600073ffffffffffffffffffffffffffffffffffffffff167fddf252ad1be2c89b69c2b068fc378daa952ba7f163c4a11628f55a4df523b3ef8360405161116591906125b4565b60405180910390a361117960008383611e09565b5050565b6000818361118b9190612a9e565b905092915050565b60007bffffffffffffffffffffffffffffffffffffffffffffffffffffffff80168211156111f6576040517f08c379a00000000000000000000000000000000000000000000000000000000081526004016111ed9061301b565b60405180910390fd5b819050919050565b600063ffffffff8016821115611249576040517f08c379a0000000000000000000000000000000000000000000000000000000008152600401611240906130ad565b60405180910390fd5b819050919050565b61125c83838361127c565b6112776112688461073e565b6112718461073e565b83611e19565b505050565b505050565b6000818361128f9190612b60565b905092915050565b600033905090565b600073ffffffffffffffffffffffffffffffffffffffff168373ffffffffffffffffffffffffffffffffffffffff16141561130f576040517f08c379a00000000000000000000000000000000000000000000000000000000081526004016113069061313f565b60405180910390fd5b600073ffffffffffffffffffffffffffffffffffffffff168273ffffffffffffffffffffffffffffffffffffffff16141561137f576040517f08c379a0000000000000000000000000000000000000000000000000000000008152600401611376906131d1565b60405180910390fd5b80600160008573ffffffffffffffffffffffffffffffffffffffff1673ffffffffffffffffffffffffffffffffffffffff16815260200190815260200160002060008473ffffffffffffffffffffffffffffffffffffffff1673ffffffffffffffffffffffffffffffffffffffff168152602001908152602001600020819055508173ffffffffffffffffffffffffffffffffffffffff168373ffffffffffffffffffffffffffffffffffffffff167f8c5be1e5ebec7d5bd14f71427d1e84f3dd0314c0f7b2291e5b200ac8c7c3b9258360405161145d91906125b4565b60405180910390a3505050565b60006114768484610df9565b90507fffffffffffffffffffffffffffffffffffffffffffffffffffffffffffffffff81146114f057818110156114e2576040517f08c379a00000000000000000000000000000000000000000000000000000000081526004016114d99061323d565b60405180910390fd5b6114ef848484840361129f565b5b50505050565b600073ffffffffffffffffffffffffffffffffffffffff168373ffffffffffffffffffffffffffffffffffffffff161415611566576040517f08c379a000000000000000000000000000000000000000000000000000000000815260040161155d906132cf565b60405180910390fd5b600073ffffffffffffffffffffffffffffffffffffffff168273ffffffffffffffffffffffffffffffffffffffff1614156115d6576040517f08c379a00000000000000000000000000000000000000000000000000000000081526004016115cd90613361565b60405180910390fd5b6115e1838383611e04565b60008060008573ffffffffffffffffffffffffffffffffffffffff1673ffffffffffffffffffffffffffffffffffffffff16815260200190815260200160002054905081811015611667576040517f08c379a000000000000000000000000000000000000000000000000000000000815260040161165e906133f3565b60405180910390fd5b8181036000808673ffffffffffffffffffffffffffffffffffffffff1673ffffffffffffffffffffffffffffffffffffffff16815260200190815260200160002081905550816000808573ffffffffffffffffffffffffffffffffffffffff1673ffffffffffffffffffffffffffffffffffffffff16815260200190815260200160002060008282546116fa9190612a9e565b925050819055508273ffffffffffffffffffffffffffffffffffffffff168473ffffffffffffffffffffffffffffffffffffffff167fddf252ad1be2c89b69c2b068fc378daa952ba7f163c4a11628f55a4df523b3ef8460405161175e91906125b4565b60405180910390a3611771848484611e09565b50505050565b60007f000000000000000000000000000000000000000000000000000000000000000073ffffffffffffffffffffffffffffffffffffffff163073ffffffffffffffffffffffffffffffffffffffff161480156117f357507f000000000000000000000000000000000000000000000000000000000000000046145b15611820577f0000000000000000000000000000000000000000000000000000000000000000905061188e565b61188b7f00000000000000000000000000000000000000000000000000000000000000007f00000000000000000000000000000000000000000000000000000000000000007f0000000000000000000000000000000000000000000000000000000000000000612012565b90505b90565b6000808380549050905060005b818110156119105760006118b2828461204c565b9050848682815481106118c8576118c7612b94565b5b9060005260206000200160000160009054906101000a900463ffffffff1663ffffffff1611156118fa5780925061190a565b6001816119079190612a9e565b91505b5061189e565b6000821461197257846001836119269190612b60565b8154811061193757611936612b94565b5b9060005260206000200160000160049054906101000a90047bffffffffffffffffffffffffffffffffffffffffffffffffffffffff16611975565b60005b7bffffffffffffffffffffffffffffffffffffffffffffffffffffffff169250505092915050565b60006119a88361073e565b905060006119b584610815565b905082600660008673ffffffffffffffffffffffffffffffffffffffff1673ffffffffffffffffffffffffffffffffffffffff16815260200190815260200160002060006101000a81548173ffffffffffffffffffffffffffffffffffffffff021916908373ffffffffffffffffffffffffffffffffffffffff1602179055508273ffffffffffffffffffffffffffffffffffffffff168273ffffffffffffffffffffffffffffffffffffffff168573ffffffffffffffffffffffffffffffffffffffff167f3134e8a2e6d97e929a7e54011ea5485d7d196dd5f0ba4d4ef95803e8e3fc257f60405160405180910390a4611ab1828483611e19565b50505050565b600081600001549050919050565b6000611ad8611ad2611777565b83612072565b9050919050565b6000806000611af0878787876120a5565b91509150611afd816121b2565b8192505050949350505050565b600080600560008473ffffffffffffffffffffffffffffffffffffffff1673ffffffffffffffffffffffffffffffffffffffff1681526020019081526020016000209050611b5781611ab7565b9150611b6281612387565b50919050565b60007bffffffffffffffffffffffffffffffffffffffffffffffffffffffff905090565b60008060008580549050905060008114611bfa5785600182611bae9190612b60565b81548110611bbf57611bbe612b94565b5b9060005260206000200160000160049054906101000a90047bffffffffffffffffffffffffffffffffffffffffffffffffffffffff16611bfd565b60005b7bffffffffffffffffffffffffffffffffffffffffffffffffffffffff169250611c2b83858763ffffffff16565b9150600081118015611c7e57504386600183611c479190612b60565b81548110611c5857611c57612b94565b5b9060005260206000200160000160009054906101000a900463ffffffff1663ffffffff16145b15611d0b57611c8c82611193565b86600183611c9a9190612b60565b81548110611cab57611caa612b94565b5b9060005260206000200160000160046101000a8154817bffffffffffffffffffffffffffffffffffffffffffffffffffffffff02191690837bffffffffffffffffffffffffffffffffffffffffffffffffffffffff160217905550611dfb565b856040518060400160405280611d20436111fe565b63ffffffff168152602001611d3485611193565b7bffffffffffffffffffffffffffffffffffffffffffffffffffffffff168152509080600181540180825580915050600190039060005260206000200160009091909190915060008201518160000160006101000a81548163ffffffff021916908363ffffffff16021790555060208201518160000160046101000a8154817bffffffffffffffffffffffffffffffffffffffffffffffffffffffff02191690837bffffffffffffffffffffffffffffffffffffffffffffffffffffffff16021790555050505b50935093915050565b505050565b611e14838383611251565b505050565b8173ffffffffffffffffffffffffffffffffffffffff168373ffffffffffffffffffffffffffffffffffffffff1614158015611e555750600081115b1561200d57600073ffffffffffffffffffffffffffffffffffffffff168373ffffffffffffffffffffffffffffffffffffffff1614611f3357600080611edc600760008773ffffffffffffffffffffffffffffffffffffffff1673ffffffffffffffffffffffffffffffffffffffff16815260200190815260200160002061128185611b8c565b915091508473ffffffffffffffffffffffffffffffffffffffff167fdec2bacdd2f05b59de34da9b523dff8be42e5e38e818c82fdb0bae774387a7248383604051611f28929190613413565b60405180910390a250505b600073ffffffffffffffffffffffffffffffffffffffff168273ffffffffffffffffffffffffffffffffffffffff161461200c57600080611fb5600760008673ffffffffffffffffffffffffffffffffffffffff1673ffffffffffffffffffffffffffffffffffffffff16815260200190815260200160002061117d85611b8c565b915091508373ffffffffffffffffffffffffffffffffffffffff167fdec2bacdd2f05b59de34da9b523dff8be42e5e38e818c82fdb0bae774387a7248383604051612001929190613413565b60405180910390a250505b5b505050565b6000838383463060405160200161202d95949392919061343c565b6040516020818303038152906040528051906020012090509392505050565b6000600282841861205d91906134be565b82841661206a9190612a9e565b905092915050565b60008282604051602001612087929190613567565b60405160208183030381529060405280519060200120905092915050565b6000807f7fffffffffffffffffffffffffffffff5d576e7357a4501ddfe92f46681b20a08360001c11156120e05760006003915091506121a9565b601b8560ff16141580156120f85750601c8560ff1614155b1561210a5760006004915091506121a9565b60006001878787876040516000815260200160405260405161212f949392919061359e565b6020604051602081039080840390855afa158015612151573d6000803e3d6000fd5b505050602060405103519050600073ffffffffffffffffffffffffffffffffffffffff168173ffffffffffffffffffffffffffffffffffffffff1614156121a0576000600192509250506121a9565b80600092509250505b94509492505050565b600060048111156121c6576121c56135e3565b5b8160048111156121d9576121d86135e3565b5b14156121e457612384565b600160048111156121f8576121f76135e3565b5b81600481111561220b5761220a6135e3565b5b141561224c576040517f08c379a00000000000000000000000000000000000000000000000000000000081526004016122439061365e565b60405180910390fd5b600260048111156122605761225f6135e3565b5b816004811115612273576122726135e3565b5b14156122b4576040517f08c379a00000000000000000000000000000000000000000000000000000000081526004016122ab906136ca565b60405180910390fd5b600360048111156122c8576122c76135e3565b5b8160048111156122db576122da6135e3565b5b141561231c576040517f08c379a00000000000000000000000000000000000000000000000000000000081526004016123139061375c565b60405180910390fd5b60048081111561232f5761232e6135e3565b5b816004811115612342576123416135e3565b5b1415612383576040517f08c379a000000000000000000000000000000000000000000000000000000000815260040161237a906137ee565b60405180910390fd5b5b50565b6001816000016000828254019250508190555050565b6040518060400160405280600063ffffffff16815260200160007bffffffffffffffffffffffffffffffffffffffffffffffffffffffff1681525090565b600081519050919050565b600082825260208201905092915050565b60005b838110156124155780820151818401526020810190506123fa565b83811115612424576000848401525b50505050565b6000601f19601f8301169050919050565b6000612446826123db565b61245081856123e6565b93506124608185602086016123f7565b6124698161242a565b840191505092915050565b6000602082019050818103600083015261248e818461243b565b905092915050565b600080fd5b600073ffffffffffffffffffffffffffffffffffffffff82169050919050565b60006124c68261249b565b9050919050565b6124d6816124bb565b81146124e157600080fd5b50565b6000813590506124f3816124cd565b92915050565b6000819050919050565b61250c816124f9565b811461251757600080fd5b50565b60008135905061252981612503565b92915050565b6000806040838503121561254657612545612496565b5b6000612554858286016124e4565b92505060206125658582860161251a565b9150509250929050565b60008115159050919050565b6125848161256f565b82525050565b600060208201905061259f600083018461257b565b92915050565b6125ae816124f9565b82525050565b60006020820190506125c960008301846125a5565b92915050565b6000806000606084860312156125e8576125e7612496565b5b60006125f6868287016124e4565b9350506020612607868287016124e4565b92505060406126188682870161251a565b9150509250925092565b600060ff82169050919050565b61263881612622565b82525050565b6000602082019050612653600083018461262f565b92915050565b6000819050919050565b61266c81612659565b82525050565b60006020820190506126876000830184612663565b92915050565b6000602082840312156126a3576126a2612496565b5b60006126b1848285016124e4565b91505092915050565b6126c3816124bb565b82525050565b60006020820190506126de60008301846126ba565b92915050565b600063ffffffff82169050919050565b6126fd816126e4565b82525050565b600060208201905061271860008301846126f4565b92915050565b60006020828403121561273457612733612496565b5b60006127428482850161251a565b91505092915050565b61275481612622565b811461275f57600080fd5b50565b6000813590506127718161274b565b92915050565b61278081612659565b811461278b57600080fd5b50565b60008135905061279d81612777565b92915050565b60008060008060008060c087890312156127c0576127bf612496565b5b60006127ce89828a016124e4565b96505060206127df89828a0161251a565b95505060406127f089828a0161251a565b945050606061280189828a01612762565b935050608061281289828a0161278e565b92505060a061282389828a0161278e565b9150509295509295509295565b600080600080600080600060e0888a03121561284f5761284e612496565b5b600061285d8a828b016124e4565b975050602061286e8a828b016124e4565b965050604061287f8a828b0161251a565b95505060606128908a828b0161251a565b94505060806128a18a828b01612762565b93505060a06128b28a828b0161278e565b92505060c06128c38a828b0161278e565b91505092959891949750929550565b600080604083850312156128e9576128e8612496565b5b60006128f7858286016124e4565b9250506020612908858286016124e4565b9150509250929050565b61291b816126e4565b811461292657600080fd5b50565b60008135905061293881612912565b92915050565b6000806040838503121561295557612954612496565b5b6000612963858286016124e4565b925050602061297485828601612929565b9150509250929050565b612987816126e4565b82525050565b60007bffffffffffffffffffffffffffffffffffffffffffffffffffffffff82169050919050565b6129be8161298d565b82525050565b6040820160008201516129da600085018261297e565b5060208201516129ed60208501826129b5565b50505050565b6000604082019050612a0860008301846129c4565b92915050565b7f4e487b7100000000000000000000000000000000000000000000000000000000600052602260045260246000fd5b60006002820490506001821680612a5557607f821691505b60208210811415612a6957612a68612a0e565b5b50919050565b7f4e487b7100000000000000000000000000000000000000000000000000000000600052601160045260246000fd5b6000612aa9826124f9565b9150612ab4836124f9565b9250827fffffffffffffffffffffffffffffffffffffffffffffffffffffffffffffffff03821115612ae957612ae8612a6f565b5b828201905092915050565b7f4552433230566f7465733a20626c6f636b206e6f7420796574206d696e656400600082015250565b6000612b2a601f836123e6565b9150612b3582612af4565b602082019050919050565b60006020820190508181036000830152612b5981612b1d565b9050919050565b6000612b6b826124f9565b9150612b76836124f9565b925082821015612b8957612b88612a6f565b5b828203905092915050565b7f4e487b7100000000000000000000000000000000000000000000000000000000600052603260045260246000fd5b7f45524332303a2064656372656173656420616c6c6f77616e63652062656c6f7760008201527f207a65726f000000000000000000000000000000000000000000000000000000602082015250565b6000612c1f6025836123e6565b9150612c2a82612bc3565b604082019050919050565b60006020820190508181036000830152612c4e81612c12565b9050919050565b7f4552433230566f7465733a207369676e61747572652065787069726564000000600082015250565b6000612c8b601d836123e6565b9150612c9682612c55565b602082019050919050565b60006020820190508181036000830152612cba81612c7e565b9050919050565b6000608082019050612cd66000830187612663565b612ce360208301866126ba565b612cf060408301856125a5565b612cfd60608301846125a5565b95945050505050565b7f4552433230566f7465733a20696e76616c6964206e6f6e636500000000000000600082015250565b6000612d3c6019836123e6565b9150612d4782612d06565b602082019050919050565b60006020820190508181036000830152612d6b81612d2f565b9050919050565b7f45524332305065726d69743a206578706972656420646561646c696e65000000600082015250565b6000612da8601d836123e6565b9150612db382612d72565b602082019050919050565b60006020820190508181036000830152612dd781612d9b565b9050919050565b600060c082019050612df36000830189612663565b612e0060208301886126ba565b612e0d60408301876126ba565b612e1a60608301866125a5565b612e2760808301856125a5565b612e3460a08301846125a5565b979650505050505050565b7f45524332305065726d69743a20696e76616c6964207369676e61747572650000600082015250565b6000612e75601e836123e6565b9150612e8082612e3f565b602082019050919050565b60006020820190508181036000830152612ea481612e68565b9050919050565b7f4552433230566f7465733a20746f74616c20737570706c79207269736b73206f60008201527f766572666c6f77696e6720766f74657300000000000000000000000000000000602082015250565b6000612f076030836123e6565b9150612f1282612eab565b604082019050919050565b60006020820190508181036000830152612f3681612efa565b9050919050565b7f45524332303a206d696e7420746f20746865207a65726f206164647265737300600082015250565b6000612f73601f836123e6565b9150612f7e82612f3d565b602082019050919050565b60006020820190508181036000830152612fa281612f66565b9050919050565b7f53616665436173743a2076616c756520646f65736e27742066697420696e203260008201527f3234206269747300000000000000000000000000000000000000000000000000602082015250565b60006130056027836123e6565b915061301082612fa9565b604082019050919050565b6000602082019050818103600083015261303481612ff8565b9050919050565b7f53616665436173743a2076616c756520646f65736e27742066697420696e203360008201527f3220626974730000000000000000000000000000000000000000000000000000602082015250565b60006130976026836123e6565b91506130a28261303b565b604082019050919050565b600060208201905081810360008301526130c68161308a565b9050919050565b7f45524332303a20617070726f76652066726f6d20746865207a65726f2061646460008201527f7265737300000000000000000000000000000000000000000000000000000000602082015250565b60006131296024836123e6565b9150613134826130cd565b604082019050919050565b600060208201905081810360008301526131588161311c565b9050919050565b7f45524332303a20617070726f766520746f20746865207a65726f20616464726560008201527f7373000000000000000000000000000000000000000000000000000000000000602082015250565b60006131bb6022836123e6565b91506131c68261315f565b604082019050919050565b600060208201905081810360008301526131ea816131ae565b9050919050565b7f45524332303a20696e73756666696369656e7420616c6c6f77616e6365000000600082015250565b6000613227601d836123e6565b9150613232826131f1565b602082019050919050565b600060208201905081810360008301526132568161321a565b9050919050565b7f45524332303a207472616e736665722066726f6d20746865207a65726f20616460008201527f6472657373000000000000000000000000000000000000000000000000000000602082015250565b60006132b96025836123e6565b91506132c48261325d565b604082019050919050565b600060208201905081810360008301526132e8816132ac565b9050919050565b7f45524332303a207472616e7366657220746f20746865207a65726f206164647260008201527f6573730000000000000000000000000000000000000000000000000000000000602082015250565b600061334b6023836123e6565b9150613356826132ef565b604082019050919050565b6000602082019050818103600083015261337a8161333e565b9050919050565b7f45524332303a207472616e7366657220616d6f756e742065786365656473206260008201527f616c616e63650000000000000000000000000000000000000000000000000000602082015250565b60006133dd6026836123e6565b91506133e882613381565b604082019050919050565b6000602082019050818103600083015261340c816133d0565b9050919050565b600060408201905061342860008301856125a5565b61343560208301846125a5565b9392505050565b600060a0820190506134516000830188612663565b61345e6020830187612663565b61346b6040830186612663565b61347860608301856125a5565b61348560808301846126ba565b9695505050505050565b7f4e487b7100000000000000000000000000000000000000000000000000000000600052601260045260246000fd5b60006134c9826124f9565b91506134d4836124f9565b9250826134e4576134e361348f565b5b828204905092915050565b600081905092915050565b7f1901000000000000000000000000000000000000000000000000000000000000600082015250565b60006135306002836134ef565b915061353b826134fa565b600282019050919050565b6000819050919050565b61356161355c82612659565b613546565b82525050565b600061357282613523565b915061357e8285613550565b60208201915061358e8284613550565b6020820191508190509392505050565b60006080820190506135b36000830187612663565b6135c0602083018661262f565b6135cd6040830185612663565b6135da6060830184612663565b95945050505050565b7f4e487b7100000000000000000000000000000000000000000000000000000000600052602160045260246000fd5b7f45434453413a20696e76616c6964207369676e61747572650000000000000000600082015250565b60006136486018836123e6565b915061365382613612565b602082019050919050565b600060208201905081810360008301526136778161363b565b9050919050565b7f45434453413a20696e76616c6964207369676e6174757265206c656e67746800600082015250565b60006136b4601f836123e6565b91506136bf8261367e565b602082019050919050565b600060208201905081810360008301526136e3816136a7565b9050919050565b7f45434453413a20696e76616c6964207369676e6174757265202773272076616c60008201527f7565000000000000000000000000000000000000000000000000000000000000602082015250565b60006137466022836123e6565b9150613751826136ea565b604082019050919050565b6000602082019050818103600083015261377581613739565b9050919050565b7f45434453413a20696e76616c6964207369676e6174757265202776272076616c60008201527f7565000000000000000000000000000000000000000000000000000000000000602082015250565b60006137d86022836123e6565b91506137e38261377c565b604082019050919050565b60006020820190508181036000830152613807816137cb565b905091905056fea2646970667358221220e5ea7791408033600576e07ee212373194e8e2177ff95d530df7f28c061db1db64736f6c63430008080033",
  "devdoc": {
    "kind": "dev",
    "methods": {
      "DOMAIN_SEPARATOR()": {
        "details": "See {IERC20Permit-DOMAIN_SEPARATOR}."
      },
      "allowance(address,address)": {
        "details": "See {IERC20-allowance}."
      },
      "approve(address,uint256)": {
        "details": "See {IERC20-approve}. NOTE: If `amount` is the maximum `uint256`, the allowance is not updated on `transferFrom`. This is semantically equivalent to an infinite approval. Requirements: - `spender` cannot be the zero address."
      },
      "balanceOf(address)": {
        "details": "See {IERC20-balanceOf}."
      },
      "checkpoints(address,uint32)": {
        "details": "Get the `pos`-th checkpoint for `account`."
      },
      "decimals()": {
        "details": "Returns the number of decimals used to get its user representation. For example, if `decimals` equals `2`, a balance of `505` tokens should be displayed to a user as `5.05` (`505 / 10 ** 2`). Tokens usually opt for a value of 18, imitating the relationship between Ether and Wei. This is the value {ERC20} uses, unless this function is overridden; NOTE: This information is only used for _display_ purposes: it in no way affects any of the arithmetic of the contract, including {IERC20-balanceOf} and {IERC20-transfer}."
      },
      "decreaseAllowance(address,uint256)": {
        "details": "Atomically decreases the allowance granted to `spender` by the caller. This is an alternative to {approve} that can be used as a mitigation for problems described in {IERC20-approve}. Emits an {Approval} event indicating the updated allowance. Requirements: - `spender` cannot be the zero address. - `spender` must have allowance for the caller of at least `subtractedValue`."
      },
      "delegate(address)": {
        "details": "Delegate votes from the sender to `delegatee`."
      },
      "delegateBySig(address,uint256,uint256,uint8,bytes32,bytes32)": {
        "details": "Delegates votes from signer to `delegatee`"
      },
      "delegates(address)": {
        "details": "Get the address `account` is currently delegating to."
      },
      "getPastTotalSupply(uint256)": {
        "details": "Retrieve the `totalSupply` at the end of `blockNumber`. Note, this value is the sum of all balances. It is but NOT the sum of all the delegated votes! Requirements: - `blockNumber` must have been already mined"
      },
      "getPastVotes(address,uint256)": {
        "details": "Retrieve the number of votes for `account` at the end of `blockNumber`. Requirements: - `blockNumber` must have been already mined"
      },
      "getVotes(address)": {
        "details": "Gets the current votes balance for `account`"
      },
      "increaseAllowance(address,uint256)": {
        "details": "Atomically increases the allowance granted to `spender` by the caller. This is an alternative to {approve} that can be used as a mitigation for problems described in {IERC20-approve}. Emits an {Approval} event indicating the updated allowance. Requirements: - `spender` cannot be the zero address."
      },
      "name()": {
        "details": "Returns the name of the token."
      },
      "nonces(address)": {
        "details": "See {IERC20Permit-nonces}."
      },
      "numCheckpoints(address)": {
        "details": "Get number of checkpoints for `account`."
      },
      "permit(address,address,uint256,uint256,uint8,bytes32,bytes32)": {
        "details": "See {IERC20Permit-permit}."
      },
      "symbol()": {
        "details": "Returns the symbol of the token, usually a shorter version of the name."
      },
      "totalSupply()": {
        "details": "See {IERC20-totalSupply}."
      },
      "transfer(address,uint256)": {
        "details": "See {IERC20-transfer}. Requirements: - `to` cannot be the zero address. - the caller must have a balance of at least `amount`."
      },
      "transferFrom(address,address,uint256)": {
        "details": "See {IERC20-transferFrom}. Emits an {Approval} event indicating the updated allowance. This is not required by the EIP. See the note at the beginning of {ERC20}. NOTE: Does not update the allowance if the current allowance is the maximum `uint256`. Requirements: - `from` and `to` cannot be the zero address. - `from` must have a balance of at least `amount`. - the caller must have allowance for ``from``'s tokens of at least `amount`."
      }
    },
    "version": 1
  },
  "userdoc": {
    "kind": "user",
    "methods": {},
    "version": 1
  },
  "storageLayout": {
    "storage": [
      {
        "astId": 3417,
        "contract": "contracts/GovernanceToken.sol:GovernanceToken",
        "label": "_balances",
        "offset": 0,
        "slot": "0",
        "type": "t_mapping(t_address,t_uint256)"
      },
      {
        "astId": 3423,
        "contract": "contracts/GovernanceToken.sol:GovernanceToken",
        "label": "_allowances",
        "offset": 0,
        "slot": "1",
        "type": "t_mapping(t_address,t_mapping(t_address,t_uint256))"
      },
      {
        "astId": 3425,
        "contract": "contracts/GovernanceToken.sol:GovernanceToken",
        "label": "_totalSupply",
        "offset": 0,
        "slot": "2",
        "type": "t_uint256"
      },
      {
        "astId": 3427,
        "contract": "contracts/GovernanceToken.sol:GovernanceToken",
        "label": "_name",
        "offset": 0,
        "slot": "3",
        "type": "t_string_storage"
      },
      {
        "astId": 3429,
        "contract": "contracts/GovernanceToken.sol:GovernanceToken",
        "label": "_symbol",
        "offset": 0,
        "slot": "4",
        "type": "t_string_storage"
      },
      {
        "astId": 4752,
        "contract": "contracts/GovernanceToken.sol:GovernanceToken",
        "label": "_nonces",
        "offset": 0,
        "slot": "5",
        "type": "t_mapping(t_address,t_struct(Counter)5257_storage)"
      },
      {
        "astId": 4093,
        "contract": "contracts/GovernanceToken.sol:GovernanceToken",
        "label": "_delegates",
        "offset": 0,
        "slot": "6",
        "type": "t_mapping(t_address,t_address)"
      },
      {
        "astId": 4099,
        "contract": "contracts/GovernanceToken.sol:GovernanceToken",
        "label": "_checkpoints",
        "offset": 0,
        "slot": "7",
        "type": "t_mapping(t_address,t_array(t_struct(Checkpoint)4084_storage)dyn_storage)"
      },
      {
        "astId": 4103,
        "contract": "contracts/GovernanceToken.sol:GovernanceToken",
        "label": "_totalSupplyCheckpoints",
        "offset": 0,
        "slot": "8",
        "type": "t_array(t_struct(Checkpoint)4084_storage)dyn_storage"
      },
      {
        "astId": 6864,
        "contract": "contracts/GovernanceToken.sol:GovernanceToken",
        "label": "s_maxSupply",
        "offset": 0,
        "slot": "9",
        "type": "t_uint256"
      }
    ],
    "types": {
      "t_address": {
        "encoding": "inplace",
        "label": "address",
        "numberOfBytes": "20"
      },
      "t_array(t_struct(Checkpoint)4084_storage)dyn_storage": {
        "base": "t_struct(Checkpoint)4084_storage",
        "encoding": "dynamic_array",
        "label": "struct ERC20Votes.Checkpoint[]",
        "numberOfBytes": "32"
      },
      "t_mapping(t_address,t_address)": {
        "encoding": "mapping",
        "key": "t_address",
        "label": "mapping(address => address)",
        "numberOfBytes": "32",
        "value": "t_address"
      },
      "t_mapping(t_address,t_array(t_struct(Checkpoint)4084_storage)dyn_storage)": {
        "encoding": "mapping",
        "key": "t_address",
        "label": "mapping(address => struct ERC20Votes.Checkpoint[])",
        "numberOfBytes": "32",
        "value": "t_array(t_struct(Checkpoint)4084_storage)dyn_storage"
      },
      "t_mapping(t_address,t_mapping(t_address,t_uint256))": {
        "encoding": "mapping",
        "key": "t_address",
        "label": "mapping(address => mapping(address => uint256))",
        "numberOfBytes": "32",
        "value": "t_mapping(t_address,t_uint256)"
      },
      "t_mapping(t_address,t_struct(Counter)5257_storage)": {
        "encoding": "mapping",
        "key": "t_address",
        "label": "mapping(address => struct Counters.Counter)",
        "numberOfBytes": "32",
        "value": "t_struct(Counter)5257_storage"
      },
      "t_mapping(t_address,t_uint256)": {
        "encoding": "mapping",
        "key": "t_address",
        "label": "mapping(address => uint256)",
        "numberOfBytes": "32",
        "value": "t_uint256"
      },
      "t_string_storage": {
        "encoding": "bytes",
        "label": "string",
        "numberOfBytes": "32"
      },
      "t_struct(Checkpoint)4084_storage": {
        "encoding": "inplace",
        "label": "struct ERC20Votes.Checkpoint",
        "members": [
          {
            "astId": 4081,
            "contract": "contracts/GovernanceToken.sol:GovernanceToken",
            "label": "fromBlock",
            "offset": 0,
            "slot": "0",
            "type": "t_uint32"
          },
          {
            "astId": 4083,
            "contract": "contracts/GovernanceToken.sol:GovernanceToken",
            "label": "votes",
            "offset": 4,
            "slot": "0",
            "type": "t_uint224"
          }
        ],
        "numberOfBytes": "32"
      },
      "t_struct(Counter)5257_storage": {
        "encoding": "inplace",
        "label": "struct Counters.Counter",
        "members": [
          {
            "astId": 5256,
            "contract": "contracts/GovernanceToken.sol:GovernanceToken",
            "label": "_value",
            "offset": 0,
            "slot": "0",
            "type": "t_uint256"
          }
        ],
        "numberOfBytes": "32"
      },
      "t_uint224": {
        "encoding": "inplace",
        "label": "uint224",
        "numberOfBytes": "28"
      },
      "t_uint256": {
        "encoding": "inplace",
        "label": "uint256",
        "numberOfBytes": "32"
      },
      "t_uint32": {
        "encoding": "inplace",
        "label": "uint32",
        "numberOfBytes": "4"
      }
    }
  }
}